:100000000C946F000C9497000C9497000C9497003C
:100010000C9497000C9497000C9497000C94970004
:100020000C9497000C9497000C9497000C949700F4
:100030000C9497000C9497000C9497000C949700E4
:100040000C94EB040C9497000C945B050C94350510
:100050000C9497000C9497000C9497000C949700C4
:100060000C948D050C949700084AD73B3BCE016E4B
:1000700084BCBFFDC12F3D6C74319ABD56833DDAFF
:100080003D00C77F11BED9E4BB4C3E916BAAAABE0E
:10009000000000803F0000000000250028002B0029
:1000A000040404040404040402020202020203031E
:1000B0000303030301020408102040800102040826
:1000C00010200102040810200000000800020100B6
:1000D000000304070000000000000000BB0611241C
:1000E0001FBECFEFD8E0DEBFCDBF11E0A0E0B1E092
:1000F000E8EEFDE102C005900D92AE35B107D9F7EB
:1001000023E0AEE5B1E001C01D92A434B207E1F7EF
:1001100010E0CFE6D0E004C02197FE010E94E70E78
:10012000CE36D107C9F70E940C070C94F20E0C943E
:100130000000282F30913A02313208F04AC08091F5
:1001400016028111FCCF9091390242E040931602D1
:10015000209315022FEF2093140210921302309374
:100160001202E9E1F2E0A2EFB1E020E0321721F063
:1001700041914D932F5FFACF1092F1012091F1013F
:10018000990F922B9093F1019091F001913061F4CD
:100190001092F0019091F1019093BB009091BC00FE
:1001A00093FDF8CF95EC01C095EE9093BC00909133
:1001B00016029230E1F3909114029F3F79F0809102
:1001C0001402803241F080911402803331F084E0D7
:1001D00005C081E003C082E001C083E010921802F4
:1001E00010923A021092170208958091CE0190E089
:1001F0002091CF01821B9109089590E0FC01E85302
:10020000FF4F2491FC01EC54FF4F3491FC01E05668
:10021000FF4FE491EE23B1F1222339F1233091F025
:1002200038F42130A9F0223001F584B58F7D12C059
:10023000273091F02830A1F02430B9F4809180006B
:100240008F7D03C0809180008F77809380000DC0E8
:1002500084B58F7784BD09C08091B0008F7703C0CB
:100260008091B0008F7D8093B000F0E0EE0FFF1F13
:10027000EA56FF4FA591B4918FB7F894EC91E32B18
:10028000EC938FBF08953FB7F8948091CA01909185
:10029000CB01A091CC01B091CD0126B5A89B05C0A2
:1002A0002F3F19F00196A11DB11D3FBFBA2FA92FF5
:1002B000982F8827820F911DA11DB11DBC01CD0172
:1002C00042E0660F771F881F991F4A95D1F708955E
:1002D0008F929F92AF92BF92CF92DF92EF92FF9256
:1002E0006B017C010E9443014B015C01C114D104EC
:1002F000E104F104F1F00E944301DC01CB01881913
:100300009909AA09BB09883E9340A105B10570F37C
:1003100021E0C21AD108E108F10888EE880E83E0D6
:10032000981EA11CB11CC114D104E104F10419F7F9
:10033000DDCFFF90EF90DF90CF90BF90AF909F9078
:100340008F9008952FB7F8946091C6017091C701FE
:100350008091C8019091C9012FBF08950895089513
:10036000CF92DF92EF92FF920F931F93CF93DF9381
:100370006C017A018B01C0E0D0E0CE15DF0581F081
:10038000D8016D918D01D601ED91FC910190F08124
:10039000E02DC6010995892B11F02196EECF7E0143
:1003A000C701DF91CF911F910F91FF90EF90DF90E8
:1003B000CF900895FC01538D448D252F30E0842F7C
:1003C00090E0821B930B541710F0CF96089501977D
:1003D0000895FC01918D828D981761F0828DDF0167
:1003E000A80FB11D5D968C91928D9F5F9F73928F28
:1003F00090E008958FEF9FEF0895FC01918D828D1D
:10040000981731F0828DE80FF11D858D90E00895E9
:100410008FEF9FEF0895FC01918D228D892F90E041
:10042000805C9F4F821B91098F73992708958BE3FE
:1004300092E00E940B0221E0892B09F420E0822F38
:100440000895FC01848DDF01A80FB11DA35ABF4F91
:100450002C91848D90E001968F739927848FA689C3
:10046000B7892C93A089B1898C91837080648C9317
:10047000938D848D981306C00288F389E02D8081C6
:100480008F7D80830895EF92FF920F931F93CF93F8
:10049000DF93EC0181E0888F9B8D8C8D981305C0D4
:1004A000E889F989808185FD26C0F62E0B8D10E044
:1004B0000F5F1F4F0F731127E02E8C8DE8120CC0B9
:1004C0000FB607FCFACFE889F989808185FFF5CF5F
:1004D000CE010E942102F1CF8B8DFE01E80FF11DAC
:1004E000E35AFF4FF0829FB7F8940B8FEA89FB899C
:1004F000808180620AC09FB7F894EE89FF8960838B
:10050000E889F98980818370806480839FBF81E05E
:1005100090E0DF91CF911F910F91FF90EF900895A0
:10052000CF93DF93EC01888D8823C9F0EA89FB899A
:10053000808185FD05C0A889B9898C9186FD0FC091
:100540000FB607FCF5CF808185FFF2CFA889B98966
:100550008C9185FFEDCFCE010E942102E7CFDF9184
:10056000CF91089580E090E0892B29F00E94170236
:1005700081110C940000089585ED8093BC0080915A
:10058000BC0084FDFCCF10921602089540917E01BC
:10059000262F30E0240F311D21323105DCF420916B
:1005A00016022430C9F4FC0180E090E0861758F46C
:1005B00030917E012191DC01A25ABE4FA30FB11DE3
:1005C0002C930196F3CF80917E01680F60937E019A
:1005D00080E0089581E0089582E008950895E09113
:1005E000CF018091CE01E81730F4F0E0E053FE4FE8
:1005F000808190E008958FEF9FEF08959091CF0153
:100600008091CE01981750F4E92FF0E0E053FE4FAF
:10061000208130E09F5F9093CF0102C02FEF3FEF2A
:10062000C9010895CF92DF92EF92FF920F931F932B
:10063000CF93DF937C01CB018A0120911702222303
:1006400089F0EB016B01C40ED51ECC15DD0569F0F8
:100650006991D701ED91FC910190F081E02DC701E6
:100660000995F3CF642F0E94C602C801DF91CF9194
:100670001F910F91FF90EF90DF90CF900895CF934F
:10068000DF931F92CDB7DEB7698320911702222333
:10069000D1F020913A02203240F021E030E0FC011C
:1006A0003383228380E090E015C080911802E82F08
:1006B000F0E0E75EFD4F998190838F5F8093180291
:1006C00080933A0205C061E0CE0101960E94C60205
:1006D00081E090E00F90DF91CF910895CF93DF9369
:1006E000EB0191E0909317029CE6909339021092EF
:1006F000180210923A02682F88ED92E00E943F03A0
:10070000688188ED92E00E943F0381E00E94990099
:1007100091E0811190E0892FDF91CF9108950895A4
:1007200080E090E008952F923F924F925F926F92F7
:100730007F928F929F92AF92BF92CF92DF92EF9271
:10074000FF920F931F93CF93DF9300D000D000D080
:10075000CDB7DEB7282E6E835A0189010E94A2010F
:100760006B017C01312C912C882483949E81892FEC
:1007700090E09C838B832801612C712CEE813E16C6
:1007800008F085C080921702FCE6F09339021092BF
:10079000180210923A02622D88ED92E00E943F0307
:1007A00081E00E9499008092170210921802109224
:1007B0003A02809116028111FCCF8B819C818319B2
:1007C00091098132910514F080E290E08D838132AD
:1007D00010F080E28D8380921602809215029FEFC6
:1007E00090931402109213028D8181508093120213
:1007F0008092F1018091F101886D8093F1018091E7
:10080000F001813071F41092F0018091F101809338
:10081000BB008091BC0083FDF8CFE5ECE093BC0009
:1008200003C0F5EEF093BC00809116028130E1F335
:10083000809113029D81891718F4E0911302ED83D2
:10084000E2EFF1E0A0EDB1E080E09D81891721F0B9
:1008500091919D938F5FF9CF1092CF019093CE012C
:100860008091CF01ED81E81709F440C00115110511
:1008700069F10E94A201DC01CB018C199D09AE092E
:10088000BF0984159505A605B70500F12FC0011510
:10089000110591F10E94A201DC01CB018C199D0987
:1008A000AE09BF0920E030E080179107A207B30727
:1008B00018F1FE812F2F30E0892D092C000C990BA7
:1008C00082179307CCF499249A9416C0C501890D18
:1008D000911D97FC9A959A83898388ED92E00E94F6
:1008E000FE02E981FA8180839394BACF8E818132AE
:1008F00008F080E2380E42CF892D26960FB6F89484
:10090000DEBF0FBECDBFDF91CF911F910F91FF9042
:10091000EF90DF90CF90BF90AF909F908F907F909F
:100920006F905F904F903F902F900895009769F0DF
:10093000FC0101900020E9F73197AF01481B590BEA
:10094000BC018BE392E00C94B00180E090E008954C
:100950008F929F92AF92BF920F931F93CF93DF938B
:10096000CDB7DEB7A1970FB6F894DEBF0FBECDBFEF
:1009700019A2423008F44AE08E010F5D1F4F842E09
:10098000912CA12CB12CA50194010E94C50EE62F3B
:10099000B901CA0101501109EA3014F4E05D01C047
:1009A000E95CD801EC93232B242B252B61F7C8019C
:1009B0000E949604A1960FB6F894DEBF0FBECDBF7D
:1009C000DF91CF911F910F91BF90AF909F908F902B
:1009D00008950E94ED0E1F920F920FB60F921124F0
:1009E0002F933F938F939F93AF93BF938091C601B3
:1009F0009091C701A091C801B091C9013091C50182
:100A000023E0230F2D3720F40196A11DB11D05C051
:100A100026E8230F0296A11DB11D2093C5018093E6
:100A2000C6019093C701A093C801B093C9018091FA
:100A3000CA019091CB01A091CC01B091CD0101965A
:100A4000A11DB11D8093CA019093CB01A093CC014D
:100A5000B093CD01BF91AF919F918F913F912F9115
:100A60000F900FBE0F901F9018951F920F920FB608
:100A70000F9211242F933F934F935F936F937F9324
:100A80008F939F93AF93BF93EF93FF938BE392E08A
:100A90000E942102FF91EF91BF91AF919F918F91A1
:100AA0007F916F915F914F913F912F910F900FBE6A
:100AB0000F901F9018951F920F920FB60F9211244E
:100AC0002F938F939F93EF93FF93E0914B02F091BD
:100AD0004C028081E0915102F091520282FD12C0DD
:100AE0009081809154028F5F8F73209155028217FD
:100AF00051F0E0915402F0E0E55CFD4F958F80935A
:100B0000540201C08081FF91EF919F918F912F91AD
:100B10000F900FBE0F901F9018951F920F920FB657
:100B20000F9211242F933F934F935F936F937F9373
:100B30008F939F93AF93BF93EF93FF938091B900EF
:100B4000887F803609F49CC068F5883209F45BC060
:100B500090F4803109F454C038F4882309F4F6C0C5
:100B6000883009F44DC0F6C0883109F44CC0803299
:100B700009F45DC0EFC0803409F468C048F48033E4
:100B800009F455C0883309F0E5C080931402D8C039
:100B9000803509F44FC0883509F45DC0883409F008
:100BA000D9C0D6C0883909F4C7C0A8F4883709F479
:100BB00067C038F4883609F463C0803709F460C030
:100BC000C9C0883809F4B8C0803909F45FC08038DA
:100BD00009F0C0C05BC0803B09F486C038F4803A9D
:100BE00009F466C0883A09F47FC0B4C0803C09F4B7
:100BF000A7C0883C09F4A4C0883B09F48AC0AAC0F5
:100C00008091F10110C09091130280911202981707
:100C100070F5E091130281E08E0F80931302F0E0F3
:100C2000EE50FE4F80818093BB0085EC86C08093A0
:100C300014028EC0E091130281E08E0F80931302A4
:100C40008091BB00F0E0EE50FE4F80839091130244
:100C5000809112026EC0E091130281E08E0F8093AA
:100C600013028091BB00F0E0EE50FE4F8083809134
:100C7000150281116DC081E08093F00184EA61C0AA
:100C800083E0809316021092A001CFCF8091A00143
:100C9000803208F051C0E091A00181E08E0F809376
:100CA000A0018091BB00F0E0E058FE4F8083BDCFF3
:100CB00085EC8093BC00109216028091A0018032D6
:100CC00030F4E091A001F0E0E058FE4F1082609116
:100CD000A00170E0E091A101F091A20180E891E013
:100CE00009951092A00136C084E0809316021092FC
:100CF0007F0110927E01E091A301F091A40109957A
:100D000080917E01811105C081E080937E01109267
:100D10005E01E0917F0181E08E0F80937F01F0E022
:100D2000E25AFE4F80818093BB0090917F018091B9
:100D30007E01981708F479CF85E88093BC000AC03B
:100D400085EC8093BC001092160204C0109214022D
:100D50000E94BC02FF91EF91BF91AF919F918F9143
:100D60007F916F915F914F913F912F910F900FBEA7
:100D70000F901F901895EBE3F2E01382128288EE39
:100D800093E0A0E0B0E084839583A683B78324E159
:100D900031E03183208325EC30E03587248724EC53
:100DA00030E03787268720EC30E0318B208B21EC38
:100DB00030E0338B228B22EC30E0358B248B26EC19
:100DC00030E0378B268B118E128E138E148EE8ED49
:100DD000F2E01382128284839583A683B78386E22E
:100DE00091E0918380831092F0021092F1021092B0
:100DF000F2021092F30280E1E4E0F3E0DF011D92E1
:100E00008A95E9F780E1E0E0F1E0A4E1B3E0019048
:100E10000D928A95E1F70895CF93DF93CDB7DEB7B2
:100E20006F970FB6F894DEBF0FBECDBF789484B530
:100E3000826084BD84B5816084BD85B5826085BDD6
:100E400085B5816085BD80916E00816080936E0064
:100E50001092810080918100826080938100809156
:100E60008100816080938100809180008160809307
:100E700080008091B10084608093B1008091B000C7
:100E800081608093B00080917A00846080937A00C2
:100E900080917A00826080937A0080917A008160EC
:100EA00080937A0080917A00806880937A00109213
:100EB000C100E0914B02F0914C0282E08083E0910E
:100EC0004702F09148021082E0914902F0914A02F3
:100ED00087E0808310925302E0914F02F09150021C
:100EE00086E08083E0914D02F0914E028081806126
:100EF0008083E0914D02F0914E0280818860808372
:100F0000E0914D02F0914E02808180688083E091F3
:100F10004D02F0914E0280818F7D80831092CF012F
:100F20001092CE011092180210923A0210921602FC
:100F300011E0109315021092F00182E10E94FD0071
:100F400083E10E94FD008091B9008E7F8093B900FB
:100F50008091B9008D7F8093B90088E48093B800B8
:100F600085E48093BC008EEA91E09093A401809385
:100F7000A3018FEA91E09093A2018093A1011093C5
:100F800017028CE6809339021092180210923A02EE
:100F900081E00E949900882341F084E391E00E945F
:100FA00096048FE491E00E9496048B81883151F081
:100FB00028EE33E0AE014D5F5F4F61E080E30E94B9
:100FC0009303F3CF61E070E080E090E00E9468015D
:100FD00028EE33E0AE014E5F5F4F61E082EC0E948D
:100FE000930361E070E080E090E00E94680128EEE9
:100FF00033E0AE014F5F5F4F61E088ED0E949303E5
:1010000061E070E080E090E00E9468018A81846085
:101010008A83BE016E5F7F4F82EC0E946E0361E0A7
:1010200070E080E090E00E94680189818068898397
:10103000BE016F5F7F4F88ED0E946E0361E070E03C
:1010400080E090E00E94680181E68B83BE016D5FC5
:101050007F4F88E70E946E0361E070E080E090E0DF
:101060000E9468018A818B7F8A83BE016E5F7F4FF9
:1010700082EC0E946E0361E070E080E090E00E94EC
:10108000680189818F778983BE016F5F7F4F88ED0B
:101090000E946E0361E070E080E090E00E946801D1
:1010A0001B82BE016D5F7F4F88E70E946E0361E087
:1010B00070E080E090E00E94680181E98B83BE01CE
:1010C0006D5F7F4F8EE00E946E0383E18B83BE01D4
:1010D0006D5F7F4F8FE00E946E0383E08B83BE01C4
:1010E0006D5F7F4F81E10E946E031B82BE016D5FC9
:1010F0007F4F82E10E946E0381E08B83BE016D5FB2
:101100007F4F86E10E946E031B82BE016D5F7F4FA1
:101110008BE20E946E0361E070E080E090E00E944C
:10112000680128EE33E0AE014D5F5F4F61E08AEC6D
:101130000E94930361E070E080E090E00E9468010B
:101140008B8180618B83BE016D5F7F4F8AEC0E9433
:101150006E0361E070E080E090E00E9468018B81A6
:101160008F7E8B83BE016D5F7F4F8AEC0E946E0382
:1011700061E070E080E090E00E94680180EC8B8389
:10118000BE016D5F7F4F8AEB0E946E036AE070E0E4
:1011900080E090E00E9468010E94A2016093C1017A
:1011A0007093C2018093C3019093C40128EE33E091
:1011B00045EA51E06CE080E00E949303A090AB010F
:1011C000B090AC01B092BC01A092BB018091AD0186
:1011D0009091AE019093BE018093BD018091AF01CB
:1011E0009091B0019093C0018093BF018091A501BF
:1011F0009091A6019093B6018093B501E090A7016C
:10120000F090A801F092B801E092B7016091A901B5
:101210007091AA017093BA016093B901072E000C76
:10122000880B990B0E946B0D2B013C01B701FF0C41
:10123000880B990B0E946B0DA30192010E94640C14
:101240006B017C01B501BB0C880B990B0E946B0DE7
:101250002AE939E140E053E40E94E40B20E030E069
:1012600043E053E40E94C80C6C877D878E879F877C
:101270006093E4027093E5028093E6029093E702A4
:101280002091000330910103409102035091030328
:101290002C8B3D8B4E8B5F8B0E94E40B2AE037ED4D
:1012A00043EA5BE30E944F0E2091F4023091F50275
:1012B0004091F6025091F7020E94E50B6C8F7D8FF2
:1012C0008E8F9F8F23E333E345E652E4C701B601D7
:1012D0000E944F0E2C8D3D8D4E8D5F8D0E94E40B34
:1012E000688B798B8A8B9B8B6093FC027093FD02D9
:1012F0008093FE029093FF024090180350901903D0
:1013000060901A0370901B0380911C0390911D0341
:10131000A0911E03B0911F038C839D83AE83BF8376
:10132000A30192016FE672E183E89AE30E94E40B65
:101330002C813D814E815F810E94E40B6093040308
:101340007093050380930603909307032091200375
:10135000309121034091220350912303288F398F2C
:101360004A8F5B8F49015A01B7FAB094B7F8B0942D
:101370008092080390920903A0920A03B0920B0393
:1013800080920C0390920D03A0920E03B0920F0373
:101390002AE0C22E27EDD22E23EAE22E2BE3F22EF4
:1013A000C0921003D0921103E0921203F092130343
:1013B000A70196010E944F0E20911403309115034E
:1013C00040911603509117030E94E50B6B017C01BD
:1013D0002AE037ED43EA5BE3C501B4010E944F0EFA
:1013E0004B015C019B01AC01C301B2010E94E50B02
:1013F000688779878A879B87A50194016C817D81A5
:101400008E819F810E94E50B6C837D838E839F83F9
:10141000C0922403D0922503E0922603F092270382
:10142000DC01CB018093280390932903A0932A0326
:10143000B0932B0320E030E040E05FE3C701B6014A
:101440000E94E50B2B013C0160932C0370932D034C
:1014500080932E0390932F039B01AC01C701B6012B
:101460000E94C80C4B015C01609330037093310300
:101470008093320390933303A30192016C817D81A9
:101480008E819F810E94C80C2B013C016093340324
:10149000709335038093360390933703C0923803DB
:1014A000D0923903E0923A03F0923B0328853985C4
:1014B0004A855B8520933C0330933D0340933E0374
:1014C00050933F03A5019401C701B6010E944F0E3E
:1014D0009B01AC01C701B6010E94E40B60931403A9
:1014E000709315038093160390931703A50194013D
:1014F000688579858A859B850E944F0E9B01AC018A
:10150000688579858A859B850E94E40B6093180322
:101510007093190380931A0390931B03A301920104
:10152000C701B6010E944F0E9B01AC016C817D8109
:101530008E819F810E94E40B60931C0370931D03B6
:1015400080931E0390931F0327E137EB41ED57E390
:10155000688D798D8A8D9B8D0E94E50B6B017C01D6
:10156000A3019201688579858A859B850E944F0E2B
:101570009B01AC01C701B6010E94E40B60932003FC
:10158000709321038093220390932303A501940178
:10159000688979898A899B890E944F0E2C8D3D8D9F
:1015A0004E8D5F8D0E94E50B6093F4027093F502FF
:1015B0008093F6029093F702A301920168897989DA
:1015C0008A899B890E944F0E2C893D894E895F89AB
:1015D0000E94E50B9B01AC01609300037093010333
:1015E00080930203909303036C857D858E859F8590
:1015F0000E94E40B60934003709341038093420385
:10160000909343030E94A201C090B101D090B20117
:10161000E090B301F090B401DC01CB018C199D097D
:10162000AE09BF0985369105A105B10508F4B4C01E
:101630000E94A2016093B1017093B2018093B30143
:101640009093B401C090F402D090F502E090F602BD
:10165000F090F702A7019601C701B6010E94C00EE3
:10166000882319F082E591E01AC046015701E894F9
:10167000B7F82FEF3FEF4FE75FE7C501B4010E94D6
:10168000C00E81110FC02FEF3FEF4FE75FE7C5019D
:10169000B4010E94C30C18162CF486E591E00E9458
:1016A000960476C02FEF3FEF4FE75FE4C701B60126
:1016B0000E94420E18161CF48AE591E0F0CF2FEF3D
:1016C0003FEF4FE75FECC701B6010E94C30C87FDF7
:1016D000F3CF20E030E0A901C701B6010E94C30C9E
:1016E00087FF09C06DE28BE392E00E944302F7FAA4
:1016F000F094F7F8F0942AE037ED43EA5BE3C70192
:10170000B6010E94E50B4B015C010E943A0D6B0192
:101710007C010E94690D9B01AC01C501B4010E94CE
:10172000E40B4B015C014AE0C701B6010E94A8042A
:101730006EE28BE392E00E94430220E030E040E260
:1017400051E4C501B4010E944F0E4B015C010E949F
:101750003A0D6B01E12CF12C4AE0C701B6010E9461
:10176000A804C701B6010E94690D9B01AC01C50127
:10177000B4010E94E40B20E030E040E251E40E941A
:101780004F0E0E943A0D80E090E04AE00E94A804CB
:101790008FE491E00E9496040E94A201C090C101D2
:1017A000D090C201E090C301F090C4016C197D0992
:1017B0008E099F094AE00E94A8048FE491E00E94EC
:1017C00096040E94B202E8CC5058BB27AA270E9478
:1017D000FC0B0C94080E0E94FA0D38F00E94010ECA
:1017E00020F039F49F3F19F426F40C94D00D0EF438
:1017F000E095E7FB0C94CA0DE92F0E94190E58F3EF
:10180000BA17620773078407950720F079F4A6F5E5
:101810000C943B0E0EF4E0950B2EBA2FA02D0B016D
:10182000B90190010C01CA01A0011124FF27591B25
:1018300099F0593F50F4503E68F11A16F040A22F2B
:10184000232F342F4427585FF3CF4695379527959C
:10185000A795F0405395C9F77EF41F16BA0B620B9B
:10186000730B840BBAF09150A1F0FF0FBB1F661FE2
:10187000771F881FC2F70EC0BA0F621F731F841F25
:1018800048F4879577956795B795F7959E3F08F04B
:10189000B0CF9395880F08F09927EE0F979587950D
:1018A00008950E94FA0D60F080E891E009F49EEF3F
:1018B0000E94010E28F040E851E071F45EEF0CC088
:1018C0000C94D00D0C943B0EE92FE0780E94190E79
:1018D00040F3092E052AB1F32617370748075907A1
:1018E00038F00E2E07F8E02569F0E025E0640AC024
:1018F000EF6307F8009407FADB01B9019D01DC01F1
:10190000CA01AD01EF930E94DF0C0E94080E0E94F5
:10191000940C5F91552339F02BED3FE049E450FDE5
:1019200049EC0C94E50B0895DF93DD27B92FBF77C1
:1019300040E85FE31616170648075B0718F4D92F2F
:101940000E94470E9F938F937F936F930E94BC0ECC
:10195000E8E6F0E00E94D30D0E94080E2F913F911F
:101960004F915F910E94620EDD2351F09058A2EAE0
:101970002AED3FE049EC5FE3D0785D270E94FC0B45
:10198000DF910C94080E0E94A60D08F481E00895E2
:101990000E94DC0C0C94080E0E94010E58F00E946C
:1019A000FA0D40F029F45F3F29F00C94CA0D511153
:1019B0000C943C0E0C94D00D0E94190E68F39923E0
:1019C000B1F3552391F3951B550BBB27AA2762173B
:1019D0007307840738F09F5F5F4F220F331F441F48
:1019E000AA1FA9F335D00E2E3AF0E0E832D091507C
:1019F0005040E695001CCAF72BD0FE2F29D0660F69
:101A0000771F881FBB1F261737074807AB07B0E8AB
:101A100009F0BB0B802DBF01FF2793585F4F3AF0B1
:101A20009E3F510578F00C94CA0D0C943C0E5F3F1C
:101A3000E4F3983ED4F3869577956795B795F79537
:101A40009F5FC9F7880F911D9695879597F908951F
:101A5000E1E0660F771F881FBB1F621773078407BB
:101A6000BA0720F0621B730B840BBA0BEE1F88F7CA
:101A7000E09508950E94210E88F09F5798F0B92FA5
:101A80009927B751B0F0E1F0660F771F881F991FB3
:101A90001AF0BA95C9F714C0B13091F00E943B0E0C
:101AA000B1E008950C943B0E672F782F8827B85F1C
:101AB00039F0B93FCCF3869577956795B395D9F70B
:101AC0003EF490958095709561957F4F8F4F9F4F15
:101AD0000895E89409C097FB3EF490958095709521
:101AE00061957F4F8F4F9F4F9923A9F0F92F96E96A
:101AF000BB279395F695879577956795B795F111DF
:101B0000F8CFFAF4BB0F11F460FF1BC06F5F7F4F7B
:101B10008F4F9F4F16C0882311F096E911C077238D
:101B200021F09EE8872F762F05C0662371F096E896
:101B3000862F70E060E02AF09A95660F771F881F65
:101B4000DAF7880F9695879597F90895990F000809
:101B5000550FAA0BE0E8FEEF16161706E807F9077F
:101B6000C0F012161306E407F50798F0621B730B1A
:101B7000840B950B39F40A2661F0232B242B252B9B
:101B800021F408950A2609F4A140A6958FEF811D3E
:101B9000811D089597F99F6780E870E060E00895DF
:101BA0009FEF80EC0895DF93CF931F930F93FF92E5
:101BB000EF92DF927B018C01689406C0DA2EEF0170
:101BC0000E94620EFE01E894A59125913591459100
:101BD0005591A6F3EF010E94FC0BFE019701A801AD
:101BE000DA9469F7DF90EF90FF900F911F91CF91FA
:101BF000DF91089500240A941616170618060906A0
:101C0000089500240A941216130614060506089572
:101C1000092E0394000C11F4882352F0BB0F40F4FA
:101C2000BF2B11F460FF04C06F5F7F4F8F4F9F4F3A
:101C3000089557FD9058440F551F59F05F3F71F0BC
:101C40004795880F97FB991F61F09F3F79F0879523
:101C50000895121613061406551FF2CF4695F1DFAC
:101C600008C0161617061806991FF1CF869571053C
:101C7000610508940895E894BB2766277727CB0170
:101C800097F908950E94A60D08F48FEF08959B011F
:101C9000AC0160E070E080E89FE30C94C80C0E9407
:101CA000620E0C94080E0E94FA0D38F00E94010E8C
:101CB00020F0952311F00C94CA0D0C94D00D112432
:101CC0000C943C0E0E94190E70F3959FC1F3950F72
:101CD00050E0551F629FF001729FBB27F00DB11DB0
:101CE000639FAA27F00DB11DAA1F649F6627B00D40
:101CF000A11D661F829F2227B00DA11D621F739F29
:101D0000B00DA11D621F839FA00D611D221F749F36
:101D10003327A00D611D231F849F600D211D822F7D
:101D2000762F6A2F11249F5750409AF0F1F08823A4
:101D30004AF0EE0FFF1FBB1F661F771F881F9150D1
:101D40005040A9F79E3F510580F00C94CA0D0C94A9
:101D50003C0E5F3FE4F3983ED4F386957795679504
:101D6000B795F795E7959F5FC1F7FE2B880F911DFB
:101D70009695879597F908959B01AC010C944F0EA9
:101D80000E94A60D880B990B0895A1E21A2EAA1B9A
:101D9000BB1BFD010DC0AA1FBB1FEE1FFF1FA2171B
:101DA000B307E407F50720F0A21BB30BE40BF50B18
:101DB000661F771F881F991F1A9469F760957095A1
:101DC000809590959B01AC01BD01CF010895EE0F68
:101DD000FF1F0590F491E02D099481E090E0F894C4
:081DE0000C94F20EF894FFCF01
:101DE8000000803F00000000000000000000803F6D
:101DF800000000004302B001DA0190020B02E90181
:101E0800FD01000000003F0312039003EE02F500FD
:101E1800FE02EF027368323030715F696E697428B0
:101E2800293A20493243206661696C65642E000DA9
:0E1E38000A006E616E00696E66006F766600CD
:107E0000112484B714BE81FFF0D085E080938100F7
:107E100082E08093C00088E18093C10086E0809377
:107E2000C20080E18093C4008EE0C9D0259A86E02C
:107E300020E33CEF91E0309385002093840096BBD3
:107E4000B09BFECF1D9AA8958150A9F7CC24DD24C4
:107E500088248394B5E0AB2EA1E19A2EF3E0BF2EE7
:107E6000A2D0813461F49FD0082FAFD0023811F036
:107E7000013811F484E001C083E08DD089C08234E0
:107E800011F484E103C0853419F485E0A6D080C0E4
:107E9000853579F488D0E82EFF2485D0082F10E0AE
:107EA000102F00270E291F29000F111F8ED06801E7
:107EB0006FC0863521F484E090D080E0DECF843638
:107EC00009F040C070D06FD0082F6DD080E0C81688
:107ED00080E7D80618F4F601B7BEE895C0E0D1E017
:107EE00062D089930C17E1F7F0E0CF16F0E7DF06D8
:107EF00018F0F601B7BEE89568D007B600FCFDCFD4
:107F0000A601A0E0B1E02C9130E011968C91119780
:107F100090E0982F8827822B932B1296FA010C0160
:107F200087BEE89511244E5F5F4FF1E0A038BF0790
:107F300051F7F601A7BEE89507B600FCFDCF97BE46
:107F4000E89526C08437B1F42ED02DD0F82E2BD052
:107F50003CD0F601EF2C8F010F5F1F4F84911BD097
:107F6000EA94F801C1F70894C11CD11CFA94CF0C13
:107F7000D11C0EC0853739F428D08EE10CD085E9AC
:107F80000AD08FE07ACF813511F488E018D01DD067
:107F900080E101D065CF982F8091C00085FFFCCF94
:107FA0009093C60008958091C00087FFFCCF809118
:107FB000C00084FD01C0A8958091C6000895E0E648
:107FC000F0E098E1908380830895EDDF803219F02E
:107FD00088E0F5DFFFCF84E1DECF1F93182FE3DFCA
:107FE0001150E9F7F2DF1F91089580E0E8DFEE27F6
:047FF000FF270994CA
:027FFE00040479
:0400000300007E007B
:00000001FF
