:100000000C9481000C9476030C944F030C94910B88
:100010000C94640B0C94370B0C94A9000C94A9005D
:100020000C94A9000C94D80C0C94A9000C94A90071
:100030000C94A9000C94A9000C94A9000C94A9009C
:100040000C94B1140C94A9000C94C3030C949D035C
:100050000C94A9000C94A9000C94A9000C94A9007C
:100060000C94F5030C94A900431ECB1DEA1D091E38
:10007000241E4C1E841E084AD73B3BCE016E84BC16
:10008000BFFDC12F3D6C74319ABD56833DDA3D00F2
:10009000C77F11BED9E4BB4C3E916BAAAABE00003B
:1000A00000803F0000000008000201000003040778
:1000B0000000000000000000010204081020408041
:1000C00001020408102001020408102000000000B2
:1000D000250028002B000404040404040404020284
:1000E00002020202030303030303000000002300D3
:1000F0002600290000000000240027002A00C22357
:10010000B22311241FBECFEFD8E0DEBFCDBF12E077
:10011000A0E0B1E0E2E1F3E502C005900D92A43762
:10012000B107D9F726E0A4E7B2E001C01D92AD35D2
:10013000B207E1F710E0C0E8D0E004C02197FE016B
:100140000E945028CF37D107C9F70E94FB140C94A6
:100150007C290C9400000895CF92DF92EF92FF92D9
:100160000F931F93CF93DF936C017A018B01C0E053
:10017000D0E0CE15DF0581F0D8016D918D01D6015B
:10018000ED91FC910190F081E02DC6010995892B3C
:1001900011F02196EECF7E01C701DF91CF911F9123
:1001A0000F91FF90EF90DF90CF900895FC01538D59
:1001B000448D252F30E0842F90E0821B930B541741
:1001C00010F0CF96089501970895FC01918D828DCE
:1001D000981761F0828DDF01A80FB11D5D968C919B
:1001E000928D9F5F9F73928F90E008958FEF9FEFA6
:1001F0000895FC01918D828D981731F0828DE80F62
:10020000F11D858D90E008958FEF9FEF0895FC011B
:10021000918D228D892F90E0805C9F4F821B9109E8
:100220008F739927089584EE93E00E94070121E0DF
:10023000892B09F420E0822F0895FC01848DDF01D1
:10024000A80FB11DA35ABF4F2C91848D90E0019649
:100250008F739927848FA689B7892C93A089B18938
:100260008C91837080648C93938D848D981306C0D9
:100270000288F389E02D80818F7D80830895EF923D
:10028000FF920F931F93CF93DF93EC0181E0888F50
:100290009B8D8C8D981305C0E889F989808185FD37
:1002A00026C0F62E0B8D10E00F5F1F4F0F73112726
:1002B000E02E8C8DE8120CC00FB607FCFACFE8894F
:1002C000F989808185FFF5CFCE010E941D01F1CF14
:1002D0008B8DFE01E80FF11DE35AFF4FF0829FB7AF
:1002E000F8940B8FEA89FB89808180620AC09FB7EE
:1002F000F894EE89FF896083E889F98980818370A9
:10030000806480839FBF81E090E0DF91CF911F9157
:100310000F91FF90EF900895CF93DF93EC01888DBC
:100320008823C9F0EA89FB89808185FD05C0A889F9
:10033000B9898C9186FD0FC00FB607FCF5CF80817F
:1003400085FFF2CFA889B9898C9185FFEDCFCE01C9
:100350000E941D01E7CFDF91CF91089580E090E0EA
:10036000892B29F00E94130181110C94000008953B
:1003700085ED8093BC008091BC0084FDFCCF109281
:10038000BF03089540914E03262F30E0240F311D06
:1003900021323105DCF42091BF032430C9F4FC0183
:1003A00080E090E0861758F430914E032191DC01F3
:1003B000A25DBC4FA30FB11D2C930196F3CF80918A
:1003C0004E03680F60934E0380E0089581E0089526
:1003D00082E00895089508950895E091780380914A
:1003E0007703E81730F4F0E0E758FC4F808190E0A5
:1003F00008958FEF9FEF0895909178038091770390
:10040000981750F4E92FF0E0E758FC4F208130E0D6
:100410009F5F9093780302C02FEF3FEFC9010895CB
:100420008091770390E020917803821B91090895D1
:10043000CF92DF92EF92FF920F931F93CF93DF93B0
:100440007C01CB018A012091C003222389F0EB01BA
:100450006B01C40ED51ECC15DD0569F06991D7017D
:10046000ED91FC910190F081E02DC7010995F3CF4A
:10047000642F0E94C201C801DF91CF911F910F919B
:10048000FF90EF90DF90CF900895CF93DF931F926E
:10049000CDB7DEB769832091C0032223D1F020912C
:1004A000E303203240F021E030E0FC01338322837B
:1004B00080E090E015C08091C103E82FF0E0EE539A
:1004C000FC4F998190838F5F8093C1038093E303F6
:1004D00005C061E0CE0101960E94C20181E090E07A
:1004E0000F90DF91CF910895089580E090E00895F6
:1004F0008091060390910703A0910803B09109032E
:100500000196A11DB11D8093060390930703A0934C
:100510000803B093090308958091020390910303A7
:10052000A0910403B09105030196A11DB11D809314
:10053000020390930303A0930403B093050308956B
:10054000FF920F931F93CF93DF93EC01FF80809175
:10055000C9029D812091C9024E813091C902309516
:1005600034232923932F922B8F25F92EF822809163
:10057000C9028F830885198501151105E1F0D8019D
:1005800013969C918F2D892381F08091C902892334
:1005900091E009F490E09093C802F801848180937F
:1005A000C7020190F081E02D0995D80115960D91B3
:1005B0001C911697E1CF9BB32C81922349F08BB30A
:1005C000822B8BBBE881F98180818093C902BECFE9
:1005D000DF91CF911F910F91FF900895CF93DF93FB
:1005E000DC01FB012283518340831296CD91DC9183
:1005F000139798818381892B888382818D7F8130B5
:1006000041F415969C9115978381892B15968C93AF
:10061000159782818150823040F416969C911697EE
:100620008381892B16968C93169790916800149667
:100630008C91892B80936800DF91CF9108950E945F
:1006400077290F931F930E94A5140091CA0210915D
:10065000CB022091CC023091CD02DC01CB01801B7A
:10066000910BA20BB30B853F9140A105B105A0F002
:100670000E94A5146093CA027093CB028093CC02AF
:100680009093CD028091CE028F5F85301CF48093D1
:10069000CE0202C01092CE021F910F9108951F92B8
:1006A0000F920FB60F9211242F933F934F935F93A6
:1006B0006F937F938F939F93AF93BF93EF93FF932A
:1006C000E0910201F09103010995FF91EF91BF9133
:1006D000AF919F918F917F916F915F914F913F91DA
:1006E0002F910F900FBE0F901F9018951F920F9291
:1006F0000FB60F9211242F933F934F935F936F93F5
:100700007F938F939F93AF93BF93EF93FF93E0916A
:100710000001F09101010995FF91EF91BF91AF9117
:100720009F918F917F916F915F914F913F912F9109
:100730000F900FBE0F901F9018951F920F920FB63B
:100740000F9211242F933F934F935F936F937F9357
:100750008F939F93AF93BF93EF93FF9384EE93E0B8
:100760000E941D01FF91EF91BF91AF919F918F91D9
:100770007F916F915F914F913F912F910F900FBE9D
:100780000F901F9018951F920F920FB60F92112481
:100790002F938F939F93EF93FF93E091F403F09146
:1007A000F5038081E091FA03F091FB0382FD12C012
:1007B00090818091FD038F5F8F732091FE038217DC
:1007C00051F0E091FD03F0E0EC51FC4F958F8093E8
:1007D000FD0301C08081FF91EF919F918F912F9137
:1007E0000F900FBE0F901F9018951F920F920FB68B
:1007F0000F9211242F933F934F935F936F937F93A7
:100800008F939F93AF93BF93EF93FF938091B90022
:10081000887F803609F49CC068F5883209F45BC093
:1008200090F4803109F454C038F4882309F4F6C0F8
:10083000883009F44DC0F6C0883109F44CC08032CC
:1008400009F45DC0EFC0803409F468C048F4803317
:1008500009F455C0883309F0E5C08093BD03D8C0C2
:10086000803509F44FC0883509F45DC0883409F03B
:10087000D9C0D6C0883909F4C7C0A8F4883709F4AC
:1008800067C038F4883609F463C0803709F460C063
:10089000C9C0883809F4B8C0803909F45FC080380D
:1008A00009F0C0C05BC0803B09F486C038F4803AD0
:1008B00009F466C0883A09F47FC0B4C0803C09F4EA
:1008C000A7C0883C09F4A4C0883B09F48AC0AAC028
:1008D00080919A0310C09091BC038091BB0398173C
:1008E00070F5E091BC0381E08E0F8093BC03F0E0D3
:1008F000E556FC4F80818093BB0085EC86C08093D9
:10090000BD038EC0E091BC0381E08E0F8093BC03D9
:100910008091BB00F0E0E556FC4F80839091BC03D2
:100920008091BB036EC0E091BC0381E08E0F809389
:10093000BC038091BB00F0E0E556FC4F80838091C2
:10094000BE0381116DC081E08093990384EA61C088
:1009500083E08093BF0310927003CFCF8091700328
:10096000803208F051C0E091700381E08E0F8093D7
:1009700070038091BB00F0E0E05BFC4F8083BDCF53
:1009800085EC8093BC001092BF038091700380328D
:1009900030F4E0917003F0E0E05BFC4F1082609176
:1009A000700370E0E0917402F091750280E593E0CD
:1009B00009951092700336C084E08093BF031092B3
:1009C0004F0310924E03E0917602F0917702099561
:1009D00080914E03811105C081E080934E031092F7
:1009E0002E03E0914F0381E08E0F80934F03F0E0E0
:1009F000E25DFC4F80818093BB0090914F0380911A
:100A00004E03981708F479CF85E88093BC000AC09C
:100A100085EC8093BC001092BF0304C01092BD030C
:100A20000E94B801FF91EF91BF91AF919F918F917B
:100A30007F916F915F914F913F912F910F900FBEDA
:100A40000F901F9018950F931F938095853560F434
:100A5000682F660F860F282F209590E0A0E0B0E069
:100A6000BC01CD01822B24C08A3A98F48555982F79
:100A7000990F980F492F50E060E070E0762F652FB6
:100A8000542F442790958A019B01092BC901B80175
:100A90000FC08A5A682F660F860F282F209590E086
:100AA000A0E0B0E0DC0199278827BC01CD01722BC2
:100AB0001F910F91089590911F03E92FF0E0EB5ED5
:100AC000FC4F2081222329F020919702215020936E
:100AD0009702882329F0209197022F5F2093970295
:100AE000808381E0890F8A3018F480931F03089572
:100AF00010921F03089590911403E92FF0E0E65F30
:100B0000FC4F2081222329F0209194022150209330
:100B10009402882329F0209194022F5F209394025D
:100B2000808381E0890F8A3018F48093140308953C
:100B300010921403089561E087E00E94931060E032
:100B40008CE00E94931061E088E00E94931060E0C6
:100B500070E085E00E94E71360E070E086E00C94AE
:100B6000E7132F923F924F925F926F927F928F92F4
:100B70009F92AF92BF92CF92DF92EF92FF920F932C
:100B80001F93CF93DF93CDB7DEB76E970FB6F89470
:100B9000DEBF0FBECDBF789420E030E0A9016091A8
:100BA000FE027091FF0280910003909101030E9468
:100BB000DE25009106031091070320910803309170
:100BC000090387FF07C030952095109501951F4FA9
:100BD0002F4F3F4F6091FC027091FD02060F171FCF
:100BE0001093FD020093FC0220E030E0A901609127
:100BF000F8027091F9028091FA029091FB020E9432
:100C0000DE2587FF10C08091020390910303A0911D
:100C10000403B0910503B095A095909581959F4FE1
:100C2000AF4FBF4F08C08091020390910303A09182
:100C30000403B09105032090F6023090F702280ECD
:100C4000391E3092F7022092F6021092060310929B
:100C500007031092080310920903109202031092E6
:100C60000303109204031092050328EE33E040EDD5
:100C700052E06CE080E00E94D111A090D602B090CA
:100C8000D702B092EB02A092EA028091D802909132
:100C9000D9029093ED028093EC022091DA02309118
:100CA000DB023E8F2D8F3093EF022093EE02809176
:100CB000D0029091D1029093F1028093F002E090E3
:100CC000D202F090D302F092F302E092F20260912D
:100CD000D4027091D5027093F5026093F402072E4E
:100CE000000C880B990B0E948D262B013C01B7014B
:100CF000FF0C880B990B0E948D26A30192010E9484
:100D00007F256B017C01B501BB0C880B990B0E9400
:100D10008D262AE939E140E053E40E94FF2420E0D7
:100D200030E043E053E40E94E32569837A838B83B8
:100D30009C836093D2057093D3058093D4059093E0
:100D4000D5058091EE059091EF05A091F005B09149
:100D5000F105898B9A8BAB8BBC8B9C01AD016981B2
:100D60007A818B819C810E94FF242AE037ED43EA3F
:100D70005BE30E9471272091E2053091E3054091E9
:100D8000E4055091E5050E940025698F7A8F8B8FCD
:100D90009C8F23E333E345E652E4C701B6010E948A
:100DA0007127298D3A8D4B8D5C8D0E94FF246D87B4
:100DB0007E878F87988B6093EA057093EB0580930D
:100DC000EC059093ED054090060650900706609064
:100DD00008067090090620910A0630910B06409192
:100DE0000C0650910D0629873A874B875C87A30133
:100DF00092016FE672E183E89AE30E94FF2429855D
:100E00003A854B855C850E94FF246093F2057093C0
:100E1000F3058093F4059093F50520910E0630912B
:100E20000F0640911006509111062D8B3E8B4F8B73
:100E3000588F49015A01B7FAB094B7F8B09480922C
:100E4000F6059092F705A092F805B092F905809208
:100E5000FA059092FB05A092FC05B092FD05EAE030
:100E6000CE2EE7EDDE2EE3EAEE2EEBE3FE2EC09271
:100E7000FE05D092FF05E0920006F0920106A70160
:100E800096010E947127209102063091030640913D
:100E90000406509105060E9400256B017C012AE0A2
:100EA00037ED43EA5BE3C501B4010E9471274B01B2
:100EB0005C019B01AC01C301B2010E9400256D835E
:100EC0007E838F839887A501940169857A858B85B8
:100ED0009C850E94002569877A878B879C87C092B2
:100EE0001206D0921306E0921406F0921506DC0169
:100EF000CB018093160690931706A0931806B09323
:100F0000190620E030E040E05FE3C701B6010E942F
:100F100000252B013C0160931A0670931B068093F9
:100F20001C0690931D069B01AC01C701B6010E94EF
:100F3000E3254B015C0160931E0670931F068093AE
:100F4000200690932106A301920169857A858B85FD
:100F50009C850E94E3252B013C016093220670933F
:100F600023068093240690932506C0922606D092ED
:100F70002706E0922806F09229062D813E814F81B6
:100F8000588520932A0630932B0640932C065093C5
:100F90002D06A5019401C701B6010E9471279B018E
:100FA000AC01C701B6010E94FF2460930206709352
:100FB00003068093040690930506A50194016D81B4
:100FC0007E818F8198850E9471279B01AC016D8184
:100FD0007E818F8198850E94FF246093060670931E
:100FE00007068093080690930906A3019201C701A2
:100FF000B6010E9471279B01AC0169857A858B85BA
:101000009C850E94FF2460930A0670930B068093D0
:101010000C0690930D0627E137EB41ED57E36D8900
:101020007E898F89988D0E9400256B017C01A30128
:1010300092016D817E818F8198850E9471279B012D
:10104000AC01C701B6010E94FF2460930E067093A5
:101050000F068093100690931106A50194016D85EB
:101060007E858F8598890E947127298D3A8D4B8DB9
:101070005C8D0E9400254B015C016093E20570933A
:10108000E3058093E4059093E505A30192016D8546
:101090007E858F8598890E94712729893A894B8995
:1010A0005C890E9400259B01AC016093EE05709362
:1010B000EF058093F0059093F10569817A818B812A
:1010C0009C810E94FF2460932E0670932F068093CC
:1010D0003006909331068D8D9E8D6DE77FEF0E94D7
:1010E000FB27072E000C880B990B0E948D266D8321
:1010F0007E838F8398876093DA057093DB058093F6
:10110000DC059093DD058092730390927403A092A6
:101110007503B092760320E030E040EA50E4C50168
:10112000B4010E9471276B017C0120E030E040E4B3
:101130005FE369817A818B819C810E9471279B0189
:10114000AC01C701B6010E94002569837A838B83B5
:101150009C838091E8029091E90201968830910584
:101160002CF49093E9028093E802CEC01092E90239
:101170001092E8021092FD021092FC021092F70207
:101180001092F602B801620D731D072E000C880B39
:10119000990B0E948D2620E030E040E05FE30E9442
:1011A00071272AE939E949E95EE30E9471276B0159
:1011B0007C0123E333E343E35FE36091E402709156
:1011C000E5028091E6029091E7020E9471279B015F
:1011D000AC01C701B6010E9400252B013C016093C0
:1011E000E4027093E5028093E6029093E702209177
:1011F00088023091890240918A0250918B020E94AC
:1012000000256B017C0160918E0270918F027195B7
:1012100061957109072E000C880B990B0E948D2691
:101220009B01AC01C701B6010E9400256B017C0146
:1012300020E030E84BE355EC0E94DE2587FD12C02C
:1012400020E030E84BE355E4C701B6010E94642773
:1012500018167CF4C12C50E8D52E5BE3E52E55E43E
:10126000F52E07C0C12C40E8D42E4BE3E42E45EC0C
:10127000F42EC0928802D0928902E0928A02F09203
:101280008B02D301C201B0588D879E87AF87B88B80
:1012900028EB3EE145E85EE3C701B6010E947127F5
:1012A0009B01AC016D857E858F8598890E94FF2406
:1012B0006093E0027093E1028093E2029093E30274
:1012C00060918C0270918D02072E000C880B990B97
:1012D0000E948D266B017C0120E030E040E05FE35E
:1012E0006D817E818F8198850E9471279B01AC0161
:1012F000C701B6010E9400256093DC027093DD02F5
:101300008093DE029093DF022091E0023091E102AF
:101310004091E2025091E30269817A818B819C8144
:101320000E94FF242B013C012091DC023091DD0260
:101330004091DE025091DF0229833A834B835C8324
:101340000E94FF246B017C0129813A814B815C81E1
:10135000C301B2010E9400252B013C0120E030E0D6
:101360004FE753ECC701B6010E94DE2587FD11C08F
:1013700020E030E04FE753E4C701B6010E94642744
:1013800018166CF4C12CD12C3FE7E32E33E4F32E76
:1013900006C0C12CD12C2FE7E22E23ECF22EC092F6
:1013A000FE02D092FF02E0920003F092010320E0DF
:1013B00030E04FE753ECC301B2010E94DE2587FD08
:1013C00011C020E030E04FE753E4C301B2010E94B6
:1013D000642718166CF4412C512C9FE7692E93E476
:1013E000792E06C0412C512C8FE7682E83EC782E85
:1013F0004092F8025092F9026092FA027092FB0257
:10140000809107019091080105970297E0F020E094
:1014100030E048ED51ECC501B4010E94DE2587FDA6
:101420000AC020E030E048ED51E4C501B4010E945B
:101430006427181644F485E090E0909308018093A7
:1014400007010E949B058091070190910801059773
:10145000D9F580918502109288021092890210922B
:101460008A0210928B0210928F0210928E021092BA
:10147000FE021092FF0210920003109201031092DC
:10148000F8021092F9021092FA021092FB028433D1
:1014900009F46AC06E960FB6F894DEBF0FBECDBFDA
:1014A000DF91CF911F910F91FF90EF90DF90CF9040
:1014B000BF90AF909F908F907F906F905F904F9074
:1014C0003F902F900C949B0520E030E0A901C701CC
:1014D000B6010E94DE2587FF08C061E087E00E9418
:1014E0009310C701B601905806C060E087E00E94E3
:1014F0009310C701B6010E94552685E00E94E713AC
:1015000020E030E0A901C301B2010E94DE2587FF7F
:1015100008C061E08CE00E949310C301B2019058B2
:1015200006C060E08CE00E949310C301B2010E94EB
:10153000552686E06E960FB6F894DEBF0FBECDBF7F
:10154000DF91CF911F910F91FF90EF90DF90CF909F
:10155000BF90AF909F908F907F906F905F904F90D3
:101560003F902F900C94E7136E960FB6F894DEBF61
:101570000FBECDBFDF91CF911F910F91FF90EF90E4
:10158000DF90CF90BF90AF909F908F907F906F90A3
:101590005F904F903F902F90089584EE93E00E94CB
:1015A0000701892B91F184EE93E00E94E5008823E6
:1015B00061F18A3051F180938602982F9B7F923699
:1015C00021F08C3611F0893611F524E030E03093AB
:1015D000720320937103833729F4109272031092DF
:1015E000710302C0863611F491E016C08236E1F331
:1015F0008C36D1F38936C1F390ED980F9A30A0F371
:101600008A3291F391E0833239F090E005C083375C
:1016100021F3823689F7E8CF892F08958091CE0291
:101620009091CF029817F9F08093CF028230A9F001
:1016300034F4882351F08130C1F481E311C0833048
:1016400071F0843091F483E30BC083E780938602CA
:10165000109272031092710308C082E301C080E30C
:101660008093860202C080E0089581E008951F9271
:101670000F920FB60F9211242F933F934F935F93C6
:101680006F937F938F939F93AF93BF93EF93FF934A
:10169000E0913206F091330680818093C90282E3A3
:1016A00096E00E94A002FF91EF91BF91AF919F91B0
:1016B0008F917F916F915F914F913F912F910F90FB
:1016C0000FBE0F901F9018951F920F920FB60F929A
:1016D00011242F933F934F935F936F937F938F9337
:1016E0009F93AF93BF93EF93FF93E0913C06F091EC
:1016F0003D0680818093C9028CE396E00E94A0029F
:10170000FF91EF91BF91AF919F918F917F916F91D9
:101710005F914F913F912F910F900FBE0F901F90AF
:1017200018951F920F920FB60F9211242F933F938B
:101730004F935F936F937F938F939F93AF93BF93D9
:10174000EF93FF93E0914606F091470680818093E6
:10175000C90286E496E00E94A002FF91EF91BF913A
:10176000AF919F918F917F916F915F914F913F9139
:101770002F910F900FBE0F901F901895AF92BF92B0
:10178000CF92DF92EF92FF920F931F93CF93DF934D
:10179000C82FD0E0FE01EA52FF4FA491A11102C070
:1017A0008FEF66C061157105D9F3B0E01297A330D1
:1017B000B10538F4AA0FBB1FA15FBE4F0D911C915C
:1017C00002C000E010E0B42E6B01A82ED801ED910C
:1017D000FC911197808117968C9317971896ED902E
:1017E000FC901997E114F10491F0F7018481A8129B
:1017F00008C02B2DA601B701C8010E94EE0280E0AF
:1018000037C085819681009711F07C01EECF87E08B
:1018100090E00E945628DC0111961C921E921296AE
:101820001C921297892B09F4BBCF1496AC92149793
:101830001296BC92129716961C921E921597FE0154
:10184000E854FF4FE4911396EC931397F8018085C9
:101850009185892B19F4B187A08703C0F701B6835E
:10186000A5832B2DA601BD01C8010E94EE0281E0D7
:10187000DF91CF911F910F91FF90EF90DF90CF906C
:10188000BF90AF9008950F931F93809187028111AD
:1018900013C00E94461460932A0370932B03809315
:1018A0002C0390932D0342E050E063E47CE081E15F
:1018B0000E94BE0B81E021C0813009F50E944614D0
:1018C00000912A0310912B0320912C0330912D03BA
:1018D000601B710B820B930B0E948B2626E933E46D
:1018E0004BE85CE30E947127609390027093910231
:1018F000809392029093930282E0809387021F91DB
:101900000F91089580912903811110C00E944614FF
:1019100060932503709326038093270390932803F5
:1019200081E08093290343E050E011C08130A1F4AD
:101930000E94461480919502909196020196909390
:101940009602809395021092290342E050E062E8EB
:101950007CE08FE00C94BE0B0895809124038111EC
:1019600010C00E944614609320037093210380935B
:1019700022039093230381E08093240343E050E00B
:1019800011C08130A1F40E94461480919802909178
:1019900099020196909399028093980210922403E1
:1019A00042E050E06DEA7CE08EE00C94BE0B0895BE
:1019B0001F920F920FB60F9211242F933F934F93C4
:1019C0005F936F937F938F939F93AF93BF93EF93A7
:1019D000FF9380917E0290917F028093B20080916C
:1019E000810290918202A0918302B09184020196BB
:1019F000A11DB11D8093810290938202A093830266
:101A0000B0938402409181025091820260918302DE
:101A10007091840280917A0290917B02A0917C0265
:101A2000B0917D02481759076A077B07B0F0809193
:101A30008002811112C081E08093800210928102A5
:101A4000109282021092830210928402E091780236
:101A5000F0917902099510928002FF91EF91BF9168
:101A6000AF919F918F917F916F915F914F913F9136
:101A70002F910F900FBE0F901F901895FF920F930C
:101A80001F93CF93DF93EC01FF24F394F60E2F8185
:101A9000F21679F1088519852150B9F06F3F59F494
:101AA00030E040E050E06FEF7FEF80E090E00E9498
:101AB0003128B9010CC08F2D90E0982F882701970D
:101AC000622F70E00E94E72702C060E070E0F8013A
:101AD0004C815D81CF01801B910B8417950740F4E9
:101AE0004081469FC001479F900D11249193F0CFF4
:101AF000FF82DF91CF911F910F91FF900895CF92B8
:101B0000DF92EF92FF920F931F93CF93DF93CDB7A6
:101B1000DEB729970FB6F894DEBF0FBECDBF8C019C
:101B2000DC0118968D919C911997892B09F49EC020
:101B30000E944614F801C684D784E088F188DC014D
:101B4000CB018C199D09AE09BF09C297A105B1054A
:101B500078F3F894848195819A8389830084F18550
:101B6000E02D7F01BFEFEB1AFB0A80818987F80126
:101B700090810288F389E02DD80154968C919923A5
:101B800009F430C09081982B9887908180958923A3
:101B90008F838F818C8388E08B8358856F81498503
:101BA0003B812C8189819A81D701508347FD252F64
:101BB0003A952083262F39F0441F00C0000060832F
:101BC000000000C0F2CF38E04D9160830000019723
:101BD00061F7D8015396FC93EE93529749873B8364
:101BE0002C833AC09081982B988790818095892387
:101BF0008F838F818E8388E08D8358856F8149859F
:101C00003D812E8189819A81D701508347FD252FFF
:101C100000C000C0208300C000C000C000C000C0E1
:101C200060830000262F3A9541F0441F000000C059
:101C300000C000C000C000C0E8CF38E04D9100C037
:101C4000608300C0019709F7D8015396FC93EE9387
:101C5000529749873D832E839A83898378940E9483
:101C60004614F80166877787808B918B29960FB68B
:101C7000F894DEBF0FBECDBFDF91CF911F910F91C2
:101C8000FF90EF90DF90CF90089580E09FEFAFEF4F
:101C9000B0E08093A2059093A305A093A405B09310
:101CA000A5058093A6059093A705A093A805B093DA
:101CB000A9051092AA051092AB051092AC051092DE
:101CC000AD051092AE051092AF051092B0051092BE
:101CD000B1051092B2051092B3051092B40510929E
:101CE000B5051092B6051092B7051092B80510927E
:101CF000B9051092BA051092BB051092BC0510925E
:101D0000BD051092BE051092BF051092C00510923D
:101D1000C10508951092A2051092A3051092A40582
:101D20001092A50580E09FEFAFEFB0E08093A6058D
:101D30009093A705A093A805B093A9058093AA0541
:101D40009093AB05A093AC05B093AD051092AE0592
:101D50001092AF051092B0051092B1051092B20525
:101D60001092B3051092B4051092B5051092B60505
:101D70001092B7051092B8051092B9051092BA05E5
:101D80001092BB051092BC051092BD051092BE05C5
:101D90001092BF051092C0051092C105089580E011
:101DA0009FEFAFEFB0E08093A2059093A305A093BF
:101DB000A405B093A5051092A6051092A705109250
:101DC000A8051092A9051092AA051092AB051092D1
:101DD000AC051092AD058093AE059093AF05A0932E
:101DE000B005B093B1051092B2051092B3051092F0
:101DF000B4051092B5051092B6051092B705109271
:101E0000B8051092B9051092BA051092BB05109250
:101E1000BC051092BD051092BE051092BF05109230
:101E2000C0051092C105089580E09FEFA0E0B0E0EA
:101E30008093A2059093A305A093A405B093A50554
:101E40008093A6059093A705A093A805B093A90534
:101E50008093AA059093AB05A093AC05B093AD0514
:101E60008093AE059093AF05A093B005B093B105F4
:101E70008093B2059093B305A093B405B093B505D4
:101E80008093B6059093B705A093B805B093B905B4
:101E90008093BA059093BB05A093BC05B093BD0594
:101EA0008093BE059093BF05A093C005B093C10574
:101EB00008951092A2051092A3051092A405109205
:101EC000A5051092A6051092A7051092A8051092DC
:101ED000A90580E09FEFA0E0B0E08093AA05909371
:101EE000AB05A093AC05B093AD058093AE05909380
:101EF000AF05A093B005B093B1051092B205109252
:101F0000B3051092B4051092B5051092B605109263
:101F1000B7051092B8051092B9051092BA05109243
:101F2000BB051092BC051092BD051092BE05109223
:101F3000BF051092C0051092C10508951092A20528
:101F40001092A3051092A4051092A50580E09FEFC2
:101F5000A0E0B0E08093A6059093A705A093A80504
:101F6000B093A9058093AA059093AB05A093AC0507
:101F7000B093AD051092AE051092AF051092B0056A
:101F80001092B1051092B2051092B3051092B405EB
:101F90001092B5051092B6051092B7051092B805CB
:101FA0001092B9051092BA051092BB051092BC05AB
:101FB0001092BD051092BE051092BF051092C0058B
:101FC0001092C105089580E09FEFA0E0B0E08093FB
:101FD000A2059093A305A093A405B093A505109224
:101FE000A6051092A7051092A8051092A9051092B7
:101FF000AA051092AB051092AC051092AD05809326
:10200000AE059093AF05A093B005B093B1051092C3
:10201000B2051092B3051092B4051092B505109256
:10202000B6051092B7051092B8051092B905109236
:10203000BA051092BB051092BC051092BD05109216
:10204000BE051092BF051092C0051092C1050895FB
:102050008F929F92AF92BF92CF92DF92EF92FF92B8
:102060006B017C010E94A5146093C4057093C505A3
:102070008093C6059093C7050E94A5148090C4055F
:102080009090C505A090C605B090C705DC01CB01B6
:1020900088199909AA09BB098C159D05AE05BF05CC
:1020A00048F40E94CD0A811134C00E940E0B8111A8
:1020B00030C002C080E02EC08091070190910801DD
:1020C0000597D1F68090730390907403A0907503E8
:1020D000B090760320E030E048ED51ECC501B4014A
:1020E0000E94642787FDC8CF20E030E048ED51E42E
:1020F000C501B4010E94DE2518160CF4BDCF109264
:102100000801109207010E94E012109272031092CF
:10211000710381E0FF90EF90DF90CF90BF90AF9080
:102120009F908F90089590E0FC01EC55FF4F249113
:10213000FC01E854FF4F3491FC01EA52FF4FE49157
:10214000EE2309F43CC0222339F1233091F038F416
:102150002130A9F0223001F584B58F7D12C02730DF
:1021600091F02830A1F02430B9F4809180008F7D67
:1021700003C0809180008F77809380000DC084B56C
:102180008F7784BD09C08091B0008F7703C08091A4
:10219000B0008F7D8093B000F0E0EE0FFF1FE4539E
:1021A000FF4FA591B4919FB7F894611104C08C9131
:1021B0003095382302C0EC913E2B3C939FBF08958D
:1021C0008F929F92AF92BF92CF92DF92EF92FF9247
:1021D000CF93DF9320918F0430919004821793075F
:1021E00008F057C04B01AA24BB24F82DC52ED62ECB
:1021F000E72EFF24AC2DE42F20919404222361F0DC
:10220000829E40011124F92D2C9D60011124AD2DD9
:10221000249FE0011124ED2F30919A04B09197048E
:10222000E0909504F09096043B1308C09C01220FA7
:10223000331F820F931F8E0D9F1D19C0880F991F8A
:10224000880F991F8E0D9F1D472F552766277727CB
:10225000EC01C30FD11D222349F030E0249F70010F
:10226000259FF00C349FF00C11244F2D48832091B2
:102270009704EC01C20FD11DF88320919804EC0162
:10228000C20FD11DA88320919904DC01A20FB11DBA
:10229000EC93DF91CF91FF90EF90DF90CF90BF90C4
:1022A000AF909F908F900895282F3091E3033132A3
:1022B00008F04AC08091BF038111FCCF9091E203E6
:1022C00042E04093BF032093BE032FEF2093BD0352
:1022D0001092BC033093BB03E2ECF3E0ABE9B3E054
:1022E00020E0321721F041914D932F5FFACF1092E9
:1022F0009A0320919A03990F922B90939A039091AD
:102300009903913061F41092990390919A039093FC
:10231000BB009091BC0093FDF8CF95EC01C095EE09
:102320009093BC009091BF039230E1F39091BD0374
:102330009F3F79F08091BD03803241F08091BD03D1
:10234000803331F084E005C081E003C082E001C049
:1023500083E01092C1031092E3031092C00308952A
:10236000CF93DF93EB0191E09093C0039CE69093B1
:10237000E2031092C1031092E303682F81E894E016
:102380000E944502688181E894E00E94450281E054
:102390000E94541191E0811190E0892FDF91CF913B
:1023A00008952F923F924F925F926F927F928F92F9
:1023B0009F92AF92BF92CF92DF92EF92FF920F93D4
:1023C0001F93CF93DF9300D000D01F92CDB7DEB71D
:1023D0008B836C835A0189010E94A5146B017C01D7
:1023E000812C1D82992493942C81222E312C28013A
:1023F000612C712C4C81841608F07FC09092C00330
:102400008CE68093E2031092C1031092E3036B8188
:1024100081E894E00E94450281E00E94541190926C
:10242000C0031092C1031092E3038091BF03811196
:10243000FCCFC101881991098132910514F080E225
:1024400090E0813208F080E29092BF039092BE0348
:102450009FEF9093BD031092BC03980F9093BB0322
:1024600090929A0390919A03986D90939A03909109
:102470009903913071F41092990390919A0390937B
:10248000BB009091BC0093FDF8CFE5ECE093BC005D
:1024900003C0F5EEF093BC009091BF039130E1F3DF
:1024A0009091BC03981710F48091BC03EBE9F3E022
:1024B000A9E7B3E090E0981721F021912D939F5F59
:1024C000FACF1092780390937703909177038091DD
:1024D0007803981709F443C00115110569F10E94AA
:1024E000A514DC01CB018C199D09AE09BF09841527
:1024F0009505A605B70500F132C001151105A9F132
:102500000E94A514DC01CB018C199D09AE09BF09FD
:1025100020E030E080179107A207B30730F14C812B
:10252000242F30E0ED818E2FEE0F990B8217930749
:10253000E4F4FFEFFD8319C0C501ED818E0F911DFD
:10254000E7FD9A959A83898381E894E00E94FC01D3
:10255000E981FA818083FD81FF5FFD83B6CF8C81A5
:10256000813208F080E2880E45CF8D810F900F9068
:102570000F900F900F90DF91CF911F910F91FF90CF
:10258000EF90DF90CF90BF90AF909F908F907F9013
:102590006F905F904F903F902F900895009769F053
:1025A000FC0101900020E9F73197AF01481B590B5E
:1025B000BC0184EE93E00C94AC0080E090E00895C0
:1025C0001092A2051092A3051092A4051092A505E1
:1025D0001092A6051092A7051092A8051092A905C1
:1025E0001092AA051092AB051092AC051092AD05A1
:1025F0001092AE051092AF051092B0051092B10581
:102600001092B2051092B3051092B4051092B50560
:102610001092B6051092B7051092B8051092B90540
:102620001092BA051092BB051092BC051092BD0520
:102630001092BE051092BF051092C0051092C10500
:10264000089580E090E0AFEFB0E08093A205909312
:10265000A305A093A405B093A5058093A605909328
:10266000A705A093A805B093A9058093AA05909308
:10267000AB05A093AC05B093AD058093AE059093E8
:10268000AF05A093B005B093B1058093B2059093C8
:10269000B305A093B405B093B5058093B6059093A8
:1026A000B705A093B805B093B9058093BA05909388
:1026B000BB05A093BC05B093BD058093BE05909368
:1026C000BF05A093C005B093C10508951092A2055F
:1026D0001092A3051092A4051092A5051092A605CC
:1026E0001092A7051092A8051092A90580E09FEF0F
:1026F000AFEFB0E08093AA059093AB05A093AC0533
:10270000B093AD058093AE059093AF05A093B0054F
:10271000B093B1051092B2051092B3051092B405B2
:102720001092B5051092B6051092B7051092B80533
:102730001092B9051092BA051092BB051092BC0513
:102740001092BD051092BE051092BF051092C005F3
:102750001092C1050895CF93DF9390E0FC01E854F7
:10276000FF4F2491FC01EA52FF4F8491882361F1CD
:1027700090E0880F991FFC01EC50FF4FC591D49158
:10278000FC01E453FF4FA591B491611109C09FB7BB
:10279000F8948881209582238883EC912E230BC0A6
:1027A000623061F49FB7F8948881322F309583238B
:1027B0008883EC912E2B2C939FBF06C08FB7F89483
:1027C000E8812E2B28838FBFDF91CF9108951F932F
:1027D000CF93DF93182FEB0161E00E94AB1320979A
:1027E00011F460E004C0CF3FD10539F461E0812FDE
:1027F000DF91CF911F910C949310E12FF0E0EC55F5
:10280000FF4FE491E330F9F048F4E130B9F0E23001
:10281000A1F584B5806284BDC8BD34C0E730E9F05D
:10282000E83019F1E43049F58091800080628093AE
:102830008000D0938B00C0938A0024C084B5806848
:1028400084BDC7BD1FC080918000806880938000D8
:10285000D0938900C093880015C08091B000806833
:102860008093B000C093B3000DC08091B00080622F
:102870008093B000C093B40005C0C038D1050CF0FF
:10288000B5CFAFCFDF91CF911F9108953FB7F894A7
:102890008091550690915606A0915706B091580622
:1028A00026B5A89B05C02F3F19F00196A11DB11DAB
:1028B0003FBFBA2FA92F982F8827820F911DA11DE6
:1028C000B11DBC01CD0142E0660F771F881F991F23
:1028D0004A95D1F708958F929F92AF92BF92CF926F
:1028E000DF92EF92FF926B017C010E9446144B0134
:1028F0005C01C114D104E104F104F1F00E9446141A
:10290000DC01CB0188199909AA09BB09883E9340CB
:10291000A105B10570F321E0C21AD108E108F10860
:1029200088EE880E83E0981EA11CB11CC114D1044E
:10293000E104F10419F7DDCFFF90EF90DF90CF9025
:10294000BF90AF909F908F9008952FB7F8946091AB
:1029500051067091520680915306909154062FBFF4
:1029600008951F920F920FB60F9211242F933F9349
:102970008F939F93AF93BF9380915106909152068E
:10298000A0915306B09154063091500623E0230FD6
:102990002D3720F40196A11DB11D05C026E8230F97
:1029A0000296A11DB11D209350068093510690936D
:1029B0005206A0935306B093540680915506909109
:1029C0005606A0915706B09158060196A11DB11D5B
:1029D0008093550690935606A0935706B0935806D9
:1029E000BF91AF919F918F913F912F910F900FBE0B
:1029F0000F901F901895CF93DF93CDB7DEB7E19777
:102A00000FB6F894DEBF0FBECDBF789484B5826058
:102A100084BD84B5816084BD85B5826085BD85B582
:102A2000816085BD80916E00816080936E00109200
:102A3000810080918100826080938100809181007B
:102A4000816080938100809180008160809380000C
:102A50008091B10084608093B1008091B00081606A
:102A60008093B00080917A00846080937A00809196
:102A70007A00826080937A0080917A0081608093EE
:102A80007A0080917A00806880937A001092C10069
:102A9000E091F403F091F50382E08083E091F0038C
:102AA000F091F1031082E091F203F091F3038FECC7
:102AB00080831092FC03E091F803F091F90386E023
:102AC0008083E091F603F091F70380818061808339
:102AD000E091F603F091F703808188608083E091B4
:102AE000F603F091F703808180688083E091F6031C
:102AF000F091F70380818F7D808360E081E10E9407
:102B0000AB1361E08BE00E94AB1361E089E00E94AF
:102B1000AB1362E08EE00E94AB1362E08FE00E9494
:102B2000AB1342E050E06DEA7CE08EE00E94BE0B09
:102B300042E050E062E87CE08FE00E94BE0B62E081
:102B40008AE00E94AB1342E050E061E273E08AE069
:102B50000E94BE0B8091930487FD08C061E00E9433
:102B6000AB1360E0809193040E94931011E01093E6
:102B70008E046091C2058DE894E00E943E0D8DE8C0
:102B800094E00E947F0D83E0809304010E94A514CD
:102B90006093A6027093A7028093A8029093A90263
:102BA00061E087E00E94AB1361E08CE00E94AB1310
:102BB00061E085E00E94AB1361E086E00E94AB1308
:102BC00061E088E00E94AB130E949B05109278039D
:102BD000109277031092C1031092E3031092BF0387
:102BE0001093BE031092990361E082E10E9493105A
:102BF00061E083E10E9493108091B9008E7F809301
:102C0000B9008091B9008D7F8093B90088E48093EA
:102C1000B80085E48093BC008AEE91E0909377023F
:102C2000809376028BEE91E090937502809374020C
:102C30001093C0038CE68093E2031092C1031092BC
:102C4000E30381E00E945411882341F089E492E07B
:102C50000E94CE1284E692E00E94CE128BA18831AF
:102C600051F028EE33E0AE014D5D5F4F61E080E34F
:102C70000E94D111F3CF61E070E080E090E00E940B
:102C80006B1428EE33E0AE014E5D5F4F61E082ECE5
:102C90000E94D11161E070E080E090E00E946B142E
:102CA00028EE33E0AE014F5F5F4F61E088ED0E9498
:102CB000D11161E070E080E090E00E946B148AA185
:102CC00084608AA3BE016E5D7F4F82EC0E94B011CA
:102CD00061E070E080E090E00E946B148981806880
:102CE0008983BE016F5F7F4F88ED0E94B01161E064
:102CF00070E080E090E00E946B1481E68BA3BE013F
:102D00006D5D7F4F88E70E94B01161E070E080E068
:102D100090E00E946B148AA18B7F8AA3BE016E5D36
:102D20007F4F82EC0E94B01161E070E080E090E0A3
:102D30000E946B1489818F778983BE016F5F7F4FFB
:102D400088ED0E94B01161E070E080E090E00E94A8
:102D50006B141BA2BE016D5D7F4F88E70E94B0110E
:102D600061E070E080E090E00E946B1481E98BA349
:102D7000BE016D5D7F4F8EE00E94B01183E18BA399
:102D8000BE016D5D7F4F8FE00E94B01183E08BA389
:102D9000BE016D5D7F4F81E10E94B0111BA2BE019B
:102DA0006D5D7F4F82E10E94B01181E08BA3BE0177
:102DB0006D5D7F4F86E10E94B0111BA2BE016D5D6B
:102DC0007F4F8BE20E94B01161E070E080E090E004
:102DD0000E946B1428EE33E0AE014D5D5F4F61E061
:102DE0008AEC0E94D11161E070E080E090E00E94E6
:102DF0006B148BA180618BA3BE016D5D7F4F8AEC4C
:102E00000E94B01161E070E080E090E00E946B14DD
:102E10008BA18F7E8BA3BE016D5D7F4F8AEC0E94DC
:102E2000B01161E070E080E090E00E946B1480ECF3
:102E30008BA3BE016D5D7F4F8AEB0E94B0116AE0EB
:102E400070E080E090E00E946B1488E792E090933D
:102E5000010180930001809169008C7F81608093E3
:102E60006900E89A41E050E06CE872E084E00E947A
:102E7000BE0B809170008E7F809370008091B000B7
:102E80008C7F8093B0008091B100877F8093B100E8
:102E90008091B6008F7D8093B600809170008D7F09
:102EA000809370008091B10084608093B100809124
:102EB000B1008C7F8093B10086E090E090937F0218
:102EC00080937E0285E090E0A0E0B0E080937A02FB
:102ED00090937B02A0937C02B0937D0281EB95E0FE
:102EE000909379028093780210928102109282026C
:102EF00010928302109284021092800280917E02CE
:102F000090917F028093B2008091700081608093E5
:102F1000700064E670E080E090E00E946B14212C69
:102F2000312C21012A9466246394712C0E940E0B8B
:102F30000E94CD0A80918602882309F414C58093EB
:102F40008502873309F4C5C40CF05BC0833309F4F0
:102F5000A7C15CF4813309F483C10CF084C18033D0
:102F600009F0F9C485E090E0E4C4853309F482C433
:102F70000CF0A7C4109272031092710385E090E0E8
:102F8000909308018093070161E087E00E9493100D
:102F900061E08CE00E9493106FEF70E085E00E948A
:102FA000E7136FEF70E086E00E94E71320E030E067
:102FB00040EF51E460917303709174038091750345
:102FC000909176030E94FF249B01AC010E9471271F
:102FD00020E030E040E05EE30E9471270E945C2622
:102FE0000E946B140E949B050E94A5146093A60288
:102FF0007093A7028093A8029093A9020E942113C4
:10300000AAC4863609F4A0C00CF04BC0893309F479
:1030100082C40CF46DC4823609F09DC42092A205CE
:103020003092A3054092A4055092A5052092A605D2
:103030003092A7054092A8055092A9051092AA05C2
:103040001092AB051092AC051092AD051092AE0532
:103050001092AF051092B0051092B1051092B20512
:103060001092B3051092B4051092B5051092B605F2
:103070001092B7051092B8051092B9051092BA05D2
:103080001092BB051092BC051092BD051092BE05B2
:103090001092BF051092C0051092C10582E090E029
:1030A000DAC08C3609F495C0833709F446C08936F6
:1030B00009F051C42092A2053092A3054092A405C4
:1030C0005092A5051092A6051092A7051092A8058A
:1030D0001092A9051092AA051092AB051092AC05AA
:1030E0001092AD052092AE053092AF054092B0052A
:1030F0005092B1051092B2051092B3051092B4052A
:103100001092B5051092B6051092B7051092B80549
:103110001092B9051092BA051092BB051092BC0529
:103120001092BD051092BE051092BF051092C00509
:103130001092C10584E090E08EC00E94E0121092CF
:1031400008011092070107C41092A2051092A3056E
:103150001092A4051092A5051092A6051092A7053D
:103160001092A8051092A9052092AA053092AB05ED
:103170004092AC055092AD052092AE053092AF055D
:103180004092B0055092B1051092B2051092B3056D
:103190001092B4051092B5051092B6051092B705BD
:1031A0001092B8051092B9051092BA051092BB059D
:1031B0001092BC051092BD051092BE051092BF057D
:1031C0001092C0051092C10570920801609207012B
:1031D000C2C31092A2051092A3051092A4051092EA
:1031E000A5052092A6053092A7054092A805509209
:1031F000A9052092AA053092AB054092AC055092E9
:10320000AD051092AE051092AF051092B005109268
:10321000B1051092B2051092B3051092B405109248
:10322000B5051092B6051092B7051092B805109228
:10323000B9051092BA051092BB051092BC05109208
:10324000BD051092BE051092BF051092C0051092E8
:10325000C10583E090E090930801809307017BC350
:1032600083E090E066C382E090E0909372038093E5
:1032700071031092AA020E94A5146DC38DE894E018
:103280000E947F0D64E170E080E090E00E942810D1
:10329000882309F486C080918602833309F05BC3DA
:1032A000109286028091CC058F5F87301CF480934A
:1032B000CC0503C021E02093CC058091CC05833060
:1032C00009F493C044F4813099F0823009F043C38B
:1032D00000E010E06DC0853009F400C10CF4CCC0F2
:1032E000863009F038C300E010E0A12CB12CC2C137
:1032F0008EE1A82EB12CC12CD12C00E010E0E12CE5
:10330000F12C80918F0490919004E816F906A0F4B6
:10331000C6018E0D9F1D6FEF70E00E94E7270E948F
:103320002305AB01BC01C8018E0D9F1D0E94E0105A
:1033300083E0E80EF11CE5CF8DE894E00E947F0D5C
:1033400062E370E080E090E00E9428108111A3CF3A
:10335000E12CF12C80918F0490919004E816F906ED
:1033600060F440E050E0BA01C8018E0D9F1D0E943C
:10337000E01093E0E90EF11CEDCF0F5F1F4F03301B
:10338000110509F0BCCFAFEFCA1ADA0AC114B1E0D7
:10339000DB0609F0B2CFE1E0AE1AB10809F4DBC2F6
:1033A000AACF0F5F1F4F011584E6180709F4D3C297
:1033B000C12CD12CE12CF12C60918F0470919004E0
:1033C000E616F70608F05ACFC6010E94E727862FB7
:1033D000800F0E942305AB01BC01C7010E94E010D1
:1033E000FFEFEF1AFF0AD394E7CF08ECE02EF12CA1
:1033F00000E010E0C12CD12C80918F0490919004BA
:10340000C816D90668F44FE75FE76FE770E0C801B8
:103410008C0D9D1D0E94E01093E0C90ED11CECCFD5
:103420008DE894E00E947F0D62E370E080E090E020
:103430000E94281081112FCFC12CD12C80918F0494
:1034400090919004C816D90660F440E050E0BA01AB
:10345000C8018C0D9D1D0E94E010A3E0CA0ED11C76
:10346000EDCF0F5F1F4F0330110521F6B1E0EB1ACE
:10347000F10809F0BDCF6FC215E6E12EF12C00E096
:1034800010E0C12CD12C80918F0490919004C8162B
:10349000D90668F48C2D800F0E942305AB01BC0176
:1034A000C6010E94E010EFEFCE1ADE0AECCF8DE8E5
:1034B00094E00E947F0D64E170E080E090E00E9463
:1034C00028108111E8CE0F5F1F4F0115F1E01F0793
:1034D000C1F621E0E21AF10891F63DC200918F0495
:1034E000109190040530110510F4015001C004E062
:1034F00010E0015011091DA21CA2C12CD12C812C5D
:10350000912CA12CB12CE12CF12C60918F047091A5
:103510009004E616F70630F5EC14FD0420F00E15C5
:103520001F0538F40BC00C151D0558F40E151F05AA
:1035300040F040E050E060E07FEF0CC00C151D054E
:10354000C0F3C5010E94E727862F880D0E9423053E
:10355000AB01BC01C7010E94E0108FEFE81AF80A26
:10356000B394D3CF0E94A51420919A0230919B026C
:1035700040919C0250919D02DC01CB01821B930B78
:10358000A40BB50B4F97A105B105D8F00F5F1F4FE6
:10359000AFEFCA1ADA0A80918F049091900408174D
:1035A000190729F4ECA1FDA13196FDA3ECA30E941B
:1035B000A51460939A0270939B0280939C0290934F
:1035C0009D028CA19DA18436910509F4C4C120916E
:1035D0008F0430919004C801B9010E94E7278C0143
:1035E000C601B9010E94E7276C018DE894E00E94B2
:1035F0007F0D64E170E080E090E00E94281081116E
:103600004ACE9FEF891A990A8114A1E09A0609F01F
:1036100078CF75CFA114B10409F0A8C0B801012E6C
:10362000000C880B990B0E948D2620E030E046ECC0
:1036300052E40E94DE2587FF02C00F5F1F4F8DE816
:1036400094E00E947F0D63E070E080E090E00E94D3
:103650002810811120CE2FEF821A920A811481E066
:10366000980651F49FEFA91AB90AA2E3AA16B10469
:1036700009F494C0812C912C1FA21EA21DA21CA291
:10368000C801012E000CAA0BBB0B8CA79DA7AEA7EF
:10369000BFA760918F0470919004ACA1BDA1A61743
:1036A000B70708F0B7CF8EA19FA10E94E727862F0A
:1036B000880D0E94230568ABF72E89AB6CA57DA50C
:1036C0008EA59FA50E948D2620E030E048EC52E4B4
:1036D0000E94E32568A779A78AA79BA76F2D70E0B2
:1036E00080E090E00E948D2628A539A54AA55BA51B
:1036F0000E9471270E945526C62ED12CE12CF12C58
:103700007601DD24CC24B9A96B2F70E080E090E035
:103710000E948D2628A539A54AA55BA50E94712780
:103720000E945526D62AE8A96E2F70E080E090E02E
:103730000E948D2628A539A54AA55BA50E94712760
:103740000E945526D701C601862BAC01BD018CA174
:103750009DA10E94E010ACA1BDA11196BDA3ACA398
:10376000EEA1FFA1F395FFA3EEA393CFF1E3AF1674
:10377000B10409F064CFB401092C000C880B990B3B
:103780000E948D2620E030E04BE153E40E94642744
:1037900018160CF054CF0150110951CF64EF71E0AD
:1037A00080E090E00E942810811175CDA2E3EA2EFE
:1037B000F12C0DE814E0C12CD12C80918F04909154
:1037C0009004C816D90680F4F801458950E060E0FD
:1037D00070E0742F662755274427C6010E94E01029
:1037E000FFEFCF1ADF0AE9CF8DE894E00E947F0D4A
:1037F0000F5F1F4F25E00D381207E9F660ED77E007
:1038000080E090E00E942810811145CD01EA15E08A
:10381000C12CD12C80918F0490919004C816D906A8
:1038200080F4D8014C9150E060E070E0742F66277E
:1038300055274427C6010E94E010BFEFCB1ADB0AD0
:10384000E9CF8DE894E00E947F0D01501109E4E07A
:10385000013A1E07E9F6F1E0EF1AF10809F0A9CFE5
:1038600064EF71E080E090E00E942810882309F462
:1038700072C011CD0E94A5140091A6021091A7025A
:103880002091A8023091A902DC01CB01801B910B91
:10389000A20BB30B853F9140A105B10508F461C0AF
:1038A00020E030E048ED51EC6091730370917403B7
:1038B00080917503909176030E94642787FF22C749
:1038C00050C082E390E09093C3058093C20562E309
:1038D00027C00E9421138091C2059091C30549978A
:1038E000181619068CF01092C3051092C20510C06C
:1038F0000E9421138091C2059091C30549968F3F84
:10390000910514F08FEF90E09093C3058093C2056A
:103910006091C20505C01092C3051092C20560E017
:103920008DE894E00E943E0D8DE894E00E947F0DAA
:1039300012C090937203809371031092B40210929C
:10394000B3020E94A5146093AF027093B0028093FB
:10395000B1029093B20290918502809186029813F1
:1039600002C0109286020E94A51400919E0210913E
:103970009F022091A0023091A102DC01CB01801BAB
:10398000910BA20BB30BC397A105B10538F10E94AF
:10399000A51460939E0270939F028093A00290935F
:1039A000A1021092870243E050E063E47CE081E1F1
:1039B0000E94BE0B60E08BE00E94931083E090E0D9
:1039C0000197F1F761E08BE00E94931083E290E0B1
:1039D0000197F1F760E08BE00E9493100E94A5141C
:1039E0000091A2021091A3022091A4023091A5029D
:1039F000DC01CB01801B910BA20BB30B893E9340E2
:103A0000A105B10508F4BBC00E94A5146093A202F1
:103A10007093A3028093A4029093A5028091040165
:103A2000F0E48F9FC0011124826080937C0080911C
:103A30007A00806480937A0080917A0086FDFCCFC2
:103A4000609178008091790070E0782B072E000C4F
:103A5000880B990B0E948D262DEC3CEC4CE85FE323
:103A60000E94712720E030E040E85AE30E9471276D
:103A700025E535E545EF50E40E9471276B017C0197
:103A80002AE939E949EF50E40E94642718168CF4BA
:103A90008091050190910601019731F40E94E01296
:103AA00061E088E00E9493101092060110920501D7
:103AB00066C020E030E040EE50E4C701B6010E944D
:103AC000DE2587FF0AC085E090E09093080180938F
:103AD000070160E088E00E949310809107019091B7
:103AE0000801009721F00597029708F044C080E094
:103AF00090E0AFEFB0E08093A2059093A305A09370
:103B0000A405B093A5058093A6059093A705A0935F
:103B1000A805B093A9058093AA059093AB05A0933F
:103B2000AC05B093AD058093AE059093AF05A0931F
:103B3000B005B093B1051092B2051092B305109282
:103B4000B4051092B5051092B6051092B705109203
:103B5000B8051092B9051092BA051092BB051092E3
:103B6000BC051092BD051092BE051092BF051092C3
:103B7000C0051092C1057092060160920501E091A6
:103B80000701F0910801E730F10508F00BC1EC5C8A
:103B9000FF4F0C94502880917103909172038330F1
:103BA000910559F028F4019771F480E590E00DC07B
:103BB0008430910529F0059731F484E190E005C047
:103BC00080E590E01EC088E290E090938F028093A1
:103BD0008E025DC0809171039091720383309105D4
:103BE00059F028F4019791F480EB9FEFEECF8430E9
:103BF000910529F0059751F48CEE9FEFE6CF80EB0D
:103C00009FEF90938F0280938E02CCC088ED9FEF40
:103C1000DCCF80917103909172038330910569F03C
:103C200038F4019751F410928F0210928E0202C064
:103C3000049719F480E590E021C010928F02109251
:103C40008E0282E390E01AC080917103909172031A
:103C50008330910569F038F4019751F410928F0286
:103C600010928E0202C0049719F480EB9FEF06C0F9
:103C700010928F0210928E028EEC9FEF90938D0225
:103C800080938C028FC010928F0210928E0210923D
:103C90008D0210928C0286C00E94A5140091A6028B
:103CA0001091A7022091A8023091A902DC01CB015A
:103CB000801B910BA20BB30B893E9340A105B1056C
:103CC00008F470C01092720310927103C0907303D5
:103CD000D0907403E0907503F090760320E030E01C
:103CE00048ED51ECC701B6010E94642787FDE7C289
:103CF00020E030E048ED51E4C701B6010E94DE2526
:103D000018160CF4DCC23DC00E94A5140091A60256
:103D10001091A7022091A8023091A902DC01CB01E9
:103D2000801B910BA20BB30B813D9740A105B10500
:103D3000C8F1C0907303D0907403E0907503F090C5
:103D4000760320E030E048ED51ECC701B6010E9457
:103D5000642787FD1DC020E030E048ED51E4C70135
:103D6000B6010E94DE2518169CF01092880210926F
:103D7000890210928A0210928B0210928F02109286
:103D80008E0210920801109207010E94E0120AC0F0
:103D900085E090E090930801809307010E949B05C5
:103DA0000E942113809171039091720383309105D9
:103DB00009F45DC18530910509F4CAC1029709F083
:103DC0007EC29091BA028091B502992309F485C010
:103DD000882309F46EC020E030E040E251E46091B5
:103DE00090027091910280919202909193020E94B0
:103DF000642787FD55C0C090AB02D090AC02E09024
:103E0000AD02F090AE02F7FC0EC084E090E090931B
:103E10000801809307010E94CF0E2FEFC21AD20A29
:103E2000E20AF20A1BC183E090E0909308018093BC
:103E300007010E948A0E81E0C81AD108E108F10842
:103E40000DC18091AA02882309F466C0813009F06F
:103E500036C2C0909002D0909102E0909202F09011
:103E6000930220E030E044E352E4C701B6010E942F
:103E7000642787FFBAC020E030E040E450E4C70187
:103E8000B6010E94642787FDC4C020E030E040E214
:103E900051E4C701B6010E94DE2518160CF4B9C022
:103EA00082E090E090930801809307010E94450E04
:103EB00006C284E090E090930801809307010E947D
:103EC000CF0E8091AB029091AC02A091AD02B09167
:103ED000AE020196A11DB11D16C0882309F4B1CF11
:103EE00083E090E090930801809307010E948A0E7E
:103EF0008091AB029091AC02A091AD02B091AE0264
:103F00000197A109B1098093AB029093AC02A093F1
:103F1000AD02B093AE02D3C1C0909002D090910296
:103F2000E0909202F090930220E030E044E352E40B
:103F3000C701B6010E94DE2587FD0BC020E030E0FE
:103F400048EC53E4C701B6010E94642718160CF030
:103F500059C081E08093AA021092080110920701D3
:103F600080E09FEFAFEFB0E08093A2059093A305B0
:103F7000A093A405B093A5058093A6059093A705EB
:103F8000A093A805B093A9058093AA059093AB05CB
:103F9000A093AC05B093AD058093AE059093AF05AB
:103FA000A093B005B093B1058093B2059093B3058B
:103FB000A093B405B093B5058093B6059093B7056B
:103FC000A093B805B093B9058093BA059093BB054B
:103FD000A093BC05B093BD058093BE059093BF052B
:103FE000A093C005B093C1056AC120E030E048EC61
:103FF00053E4C701B6010E94DE2518160CF43BCF2E
:104000001092AA0270920801609207010E94661342
:1040100056C1C090AB02D090AC02E090AD02F090DF
:10402000AE02F7FC0EC084E090E09093080180930C
:1040300007010E94CF0E9FEFC91AD90AE90AF90AAF
:104040000DC083E090E090930801809307010E94E7
:104050008A0EA1E0CA1AD108E108F108C092AB02A9
:10406000D092AC02E092AD02F092AE0228C18091F3
:10407000B3029091B4028130910509F45CC08230A2
:10408000910509F47AC0892B09F019C10E94A51481
:10409000C090AF02D090B002E090B102F090B202B6
:1040A000DC01CB018C199D09AE09BF09843F914009
:1040B000A105B10508F49EC00E94A514DC01CB0146
:1040C0008C199D09AE09BF09843F9140A105B10536
:1040D00008F4F5C08091BA02882329F07092B402E6
:1040E0006092B302ECC08091B5028111F7CFC0900D
:1040F0009002D0909102E0909202F090930220E022
:1041000030E040E450E4C701B6010E94642718166D
:104110000CF0B1C020E030E04CE052E4C701B60141
:104120000E94DE2587FFA7C082E090E09093B40252
:104130008093B302C4C08091BA028823A1F0809119
:10414000B502811136C00E949E0F83E090E0A7C0A7
:104150008091B3029091B4028130910589F58091EC
:10416000BA02811193C08091B502882309F43EC040
:104170000E94E30F84E090E092C0C0909002D09043
:104180009102E0909202F090930220E030E040E44F
:1041900050E4C701B6010E94642718163CF520E0E0
:1041A00030E04CE052E4C701B6010E94DE2587FFF3
:1041B0001DC00E94590F70920801609207017FC0D4
:1041C00082309105F1F4C0909002D0909102E0907D
:1041D0009202F090930220E030E040EA50E4C70100
:1041E000B6010E94642718160CF45EC01092B40247
:1041F0001092B30210920801109207010E94140F4E
:104200005EC0892B09F05BC00E94A514C090AF026C
:10421000D090B002E090B102F090B202DC01CB018C
:104220008C199D09AE09BF09843F9140A105B105D4
:1042300008F30E94A514DC01CB018C199D09AE097D
:10424000BF09843F9140A105B105C8F18091BA0230
:10425000811144CF8091B502811140CFC09090026E
:10426000D0909102E0909202F090930220E030E032
:1042700040EA50E448CF0E94A5146093AF027093C7
:10428000B0028093B1029093B20219C08091B5023E
:10429000882309F458CF0E94590F82E090E0909350
:1042A0000801809307010BC020E030E04CE052E4AD
:1042B000C701B6010E94DE2587FF98CFECCF0E9490
:1042C000A5140091BF021091C0022091C10230914B
:1042D000C202DC01CB01801B910BA20BB30B4097F8
:1042E000A105B10500F107E210E03FE1E32EF12C5A
:1042F00060E089E00E949310C7010197F1F761E047
:1043000089E00E949310C7010197F1F7015011094C
:1043100079F70E94A5146093BF027093C002809346
:10432000C1029093C2020E94A5140091BB02109199
:10433000BC022091BD023091BE02DC01CB01801B8A
:10434000910BA20BB30BC397A105B10538F1809176
:10435000980290919902039720F081E08093BA022D
:1043600003C01092BA0280E00E945B058091970220
:10437000853020F081E08093BA0202C01092BA0228
:1043800010929902109298020E94A5146093BB02A9
:104390007093BC028093BD029093BE020E94A5144C
:1043A0000091B6021091B7022091B8023091B90283
:1043B000DC01CB01801B910BA20BB30BC397A105B2
:1043C000B10518F18091950290919602039710F033
:1043D00081E001C080E00E947B05809194028530DD
:1043E00020F081E08093B50202C01092B5021092D5
:1043F0009602109295020E94A5146093B6027093E3
:10440000B7028093B8029093B9020E94A51400915C
:10441000CE051091CF052091D0053091D105DC015A
:10442000CB01801B910BA20BB30B84369105A10528
:10443000B10528F58091CD05811121C081E08093DF
:10444000CD0592EAE92E95E0F92E00E010E080918A
:104450008F04909190040817190760F4D7014D91CB
:104460005D916D917D917D01C8010E94E0100F5F0B
:104470001F4FEDCF8DE894E00E947F0D4CC00E944D
:10448000A5140091CE051091CF052091D005309153
:10449000D105DC01CB01801B910BA20BB30B883C37
:1044A0009105A105B105B0F40E94A5140091CE05B7
:1044B0001091CF052091D0053091D105DC01CB01C1
:1044C000801B910BA20BB30B85369105A105B1059D
:1044D00008F026C10E94A5140091CE051091CF05C9
:1044E0002091D0053091D105DC01CB01801B910BCF
:1044F000A20BB30B883C9105A105B10560F01092A9
:10450000CD050E94A5146093CE057093CF058093CE
:10451000D0059093D1050E94A5140091C30210917B
:10452000C4022091C5023091C602DC01CB01801B80
:10453000910BA20BB30B85369105A105B10508F4CB
:10454000DDC00E94A5146093C3027093C4028093DF
:10455000C5029093C602C090E205D090E305E090BA
:10456000E405F090E505A7019601C701B6010E9498
:10457000E227882319F087E692E01AC04601570126
:10458000E894B7F82FEF3FEF4FE75FE7C501B401BD
:104590000E94E22781110FC02FEF3FEF4FE75FE747
:1045A000C501B4010E94DE2518162CF48BE692E0BA
:1045B0000E94CE129FC02FEF3FEF4FE75FE4C7018D
:1045C000B6010E94642718161CF48FE692E0F0CF23
:1045D0002FEF3FEF4FE75FECC701B6010E94DE25EA
:1045E00087FDF3CF20E030E0A901C701B6010E94AA
:1045F000DE2587FF09C06DE284EE93E00E943F0153
:10460000F7FAF094F7F8F0942AE037ED43EA5BE329
:10461000C701B6010E9400254B015C010E945C2687
:104620006B017C010E948B269B01AC01C501B4018A
:104630000E94FF244B015C0119A28E010F5D1F4FE8
:104640000CA31EA3C701B6012AE030E040E050E011
:104650000E940F2869017A01605DD8016E938D0177
:10466000232B242B252B71F7CD010E94CE126EE255
:1046700084EE93E00E943F0123E0F22EFA94FF20A3
:10468000C9F120E030E040E251E4C501B4010E94EC
:1046900071274B015C010E945C269B0140E050E0C9
:1046A00019A20CA11EA168A7C32ED42EE52ECA0103
:1046B000B9012AE030E040E050E00E940F28605D40
:1046C000F80162938F01211531054105510579F7F4
:1046D000CF010E94CE1268A57C2D8D2D9E2D0E94AB
:1046E0008B269B01AC01C501B4010E94FF244B0144
:1046F0005C01C4CF84E692E00E94CE120E94AE011B
:104700000C9496170E94A5146093A6027093A702BA
:104710008093A8029093A90286E090E00C942B1954
:104720008091CD05813009F0D5CE82E08093CD0512
:1047300082EBE82E85E0F82E00E010E080918F04F7
:10474000909190040817190708F094CEF701419151
:104750005191619171917F01C8010E94E0100F5F3A
:104760001F4FECCF8091950490919604009711F023
:104770000E94EE288091930487FD03C060E00C94B2
:10478000AB1308951092E7031092E60388EE93E0CE
:10479000A0E0B0E08093E8039093E903A093EA03DC
:1047A000B093EB0329E232E03093E5032093E40376
:1047B00025EC30E03093F1032093F00324EC30E05B
:1047C0003093F3032093F20320EC30E03093F503B1
:1047D0002093F40321EC30E03093F7032093F603A9
:1047E00022EC30E03093F9032093F80326EC30E01C
:1047F0003093FB032093FA031092FD031092FE0303
:104800001092FF031092000410928404109283040B
:104810008093850490938604A0938704B0938804C2
:104820008BE392E09093820480938104EEEEF0E0BB
:104830008591949190934706809346068BE690E08D
:10484000909349068093480681E080934A0610922F
:104850004B0610924C0610924F0610924E06E0EF57
:10486000F0E02591349130933D0620933C062CE6F0
:1048700030E030933F0620933E0622E0209340062E
:10488000109241061092420610924506109244067C
:10489000E2EFF0E045915491509333064093320695
:1048A0004DE650E0509335064093340694E09093E3
:1048B0003606109237061092380610923B06109278
:1048C0003A061092DE051092DF051092E005109274
:1048D000E10590E1E2EFF5E0DF01392F1D923A9515
:1048E000E9F7E5E1F1E0A2E0B6E001900D929A95DA
:1048F000E1F710928E041092940410929B0410928F
:104900009C0410929D0410929E0480939A048093BC
:104910009704109298042093990480938D048CE05E
:1049200090E090939204809391040E945628909373
:10493000960480939504009761F02CE0DC011D92B1
:104940002A95E9F784E090E09093900480938F0497
:1049500008C0109292041092910410929004109248
:104960008F0483E08093930480918E04882341F028
:1049700061E083E00E94AB1360E083E00E9493104B
:10498000E9EDF0E0E491F0E0EE0FFF1FE453FF4F9C
:10499000859194919093A00480939F04EBEBF0E0B9
:1049A000E491E093A10480E0E5E2F1E0A2EAB4E062
:1049B00001900D928A95E1F782E390E09093C30510
:1049C0008093C2051092C4051092C5051092C605C9
:1049D0001092C7051092C8051092C9051092CA0519
:1049E0001092CB051092CC051092CD051092CE05F9
:1049F0001092CF051092D0051092D105089550580D
:104A0000BB27AA270E9417250C942A270E941C273F
:104A100038F00E94232720F039F49F3F19F426F440
:104A20000C94F2260EF4E095E7FB0C94EC26E92FAB
:104A30000E943B2758F3BA1762077307840795074C
:104A400020F079F4A6F50C945D270EF4E0950B2E7A
:104A5000BA2FA02D0B01B90190010C01CA01A001D0
:104A60001124FF27591B99F0593F50F4503E68F12B
:104A70001A16F040A22F232F342F4427585FF3CF6C
:104A8000469537952795A795F0405395C9F77EF43D
:104A90001F16BA0B620B730B840BBAF09150A1F086
:104AA000FF0FBB1F661F771F881FC2F70EC0BA0F0C
:104AB000621F731F841F48F4879577956795B79594
:104AC000F7959E3F08F0B0CF9395880F08F099278F
:104AD000EE0F9795879508950E941C2760F080E857
:104AE00091E009F49EEF0E94232728F040E851E06E
:104AF00071F45EEF0CC00C94F2260C945D27E92F44
:104B0000E0780E943B2740F3092E052AB1F32617CF
:104B100037074807590738F00E2E07F8E02569F0E7
:104B2000E025E0640AC0EF6307F8009407FADB01B0
:104B3000B9019D01DC01CA01AD01EF930E94FA2584
:104B40000E942A270E94AF255F91552339F02BED53
:104B50003FE049E450FD49EC0C9400250895DF93B3
:104B6000DD27B92FBF7740E85FE316161706480721
:104B70005B0718F4D92F0E9469279F938F937F9327
:104B80006F930E94DE27E6E7F0E00E94F5260E9480
:104B90002A272F913F914F915F910E948427DD2317
:104BA00051F09058A2EA2AED3FE049EC5FE3D0785B
:104BB0005D270E941725DF910C942A270E94C826A2
:104BC00008F481E008950E94F7250C942A270E949A
:104BD000232758F00E941C2740F029F45F3F29F05A
:104BE0000C94EC2651110C945E270C94F2260E9432
:104BF0003B2768F39923B1F3552391F3951B550B8C
:104C0000BB27AA2762177307840738F09F5F5F4F9F
:104C1000220F331F441FAA1FA9F335D00E2E3AF0DE
:104C2000E0E832D091505040E695001CCAF72BD0F6
:104C3000FE2F29D0660F771F881FBB1F2617370747
:104C40004807AB07B0E809F0BB0B802DBF01FF2779
:104C500093585F4F3AF09E3F510578F00C94EC2644
:104C60000C945E275F3FE4F3983ED4F386957795E6
:104C70006795B795F7959F5FC9F7880F911D969532
:104C8000879597F90895E1E0660F771F881FBB1F8E
:104C9000621773078407BA0720F0621B730B840B3B
:104CA000BA0BEE1F88F7E09508950E945C26689481
:104CB000B1110C945E2708950E94432788F09F57F6
:104CC00098F0B92F9927B751B0F0E1F0660F771F30
:104CD000881F991F1AF0BA95C9F714C0B13091F026
:104CE0000E945D27B1E008950C945D27672F782F0F
:104CF0008827B85F39F0B93FCCF3869577956795EB
:104D0000B395D9F73EF490958095709561957F4F56
:104D10008F4F9F4F0895E89409C097FB3EF49095FC
:104D20008095709561957F4F8F4F9F4F9923A9F084
:104D3000F92F96E9BB279395F69587957795679513
:104D4000B795F111F8CFFAF4BB0F11F460FF1BC057
:104D50006F5F7F4F8F4F9F4F16C0882311F096E9EA
:104D600011C0772321F09EE8872F762F05C0662398
:104D700071F096E8862F70E060E02AF09A95660F51
:104D8000771F881FDAF7880F9695879597F908950A
:104D9000990F0008550FAA0BE0E8FEEF161617064C
:104DA000E807F907C0F012161306E407F50798F0B4
:104DB000621B730B840B950B39F40A2661F0232BCD
:104DC000242B252B21F408950A2609F4A140A69549
:104DD0008FEF811D811D089597F99F6780E870E02E
:104DE00060E008959FEF80EC0895DF93CF931F93C9
:104DF0000F93FF92EF92DF927B018C01689406C0C3
:104E0000DA2EEF010E948427FE01E894A5912591F6
:104E1000359145915591A6F3EF010E941725FE01AA
:104E20009701A801DA9469F7DF90EF90FF900F9156
:104E30001F91CF91DF91089500240A94161617064A
:104E400018060906089500240A941216130614067B
:104E500005060895092E0394000C11F4882352F0DE
:104E6000BB0F40F4BF2B11F460FF04C06F5F7F4F96
:104E70008F4F9F4F089557FD9058440F551F59F07D
:104E80005F3F71F04795880F97FB991F61F09F3F37
:104E900079F087950895121613061406551FF2CF60
:104EA0004695F1DF08C0161617061806991FF1CFB0
:104EB00086957105610508940895E894BB276627D7
:104EC0007727CB0197F908950E94C82608F48FEF41
:104ED00008959B01AC0160E070E080E89FE30C94D2
:104EE000E3250E9484270C942A270E941C2738F06F
:104EF0000E94232720F0952311F00C94EC260C94AB
:104F0000F22611240C945E270E943B2770F3959F94
:104F1000C1F3950F50E0551F629FF001729FBB27B0
:104F2000F00DB11D639FAA27F00DB11DAA1F649F4C
:104F30006627B00DA11D661F829F2227B00DA11DFF
:104F4000621F739FB00DA11D621F839FA00D611D85
:104F5000221F749F3327A00D611D231F849F600DA6
:104F6000211D822F762F6A2F11249F5750409AF0CF
:104F7000F1F088234AF0EE0FFF1FBB1F661F771F5B
:104F8000881F91505040A9F79E3F510580F00C9426
:104F9000EC260C945E275F3FE4F3983ED4F38695AD
:104FA00077956795B795F795E7959F5FC1F7FE2BC6
:104FB000880F911D9695879597F908959B01AC01EF
:104FC0000C9471270E94C826880B990B0895AA1B80
:104FD000BB1B51E107C0AA1FBB1FA617B70710F0E4
:104FE000A61BB70B881F991F5A95A9F78095909516
:104FF000BC01CD01089597FB072E16F4009407D04D
:1050000077FD09D00E94E72707FC05D03EF4909574
:1050100081959F4F0895709561957F4F0895A1E206
:105020001A2EAA1BBB1BFD010DC0AA1FBB1FEE1F22
:10503000FF1FA217B307E407F50720F0A21BB30B6D
:10504000E40BF50B661F771F881F991F1A9469F7E9
:1050500060957095809590959B01AC01BD01CF0145
:105060000895052E97FB1EF400940E94482857FDD2
:1050700007D00E940F2807FC03D04EF40C94482858
:1050800050954095309521953F4F4F4F5F4F089574
:1050900090958095709561957F4F8F4F9F4F0895A4
:1050A000EE0FFF1F0590F491E02D09940F931F93CD
:1050B000CF93DF938230910510F482E090E0E0918D
:1050C0005B06F0915C0620E030E0A0E0B0E03097B5
:1050D00019F1408151810281138148175907C8F0A5
:1050E0008417950769F4109731F012960C93129774
:1050F00013961C9327C000935B0610935C0622C096
:105100002115310519F04217530718F49A01BD0112
:10511000EF01DF01F801DBCF21153105F9F0281B84
:10512000390B2430310580F48A819B81611571052A
:1051300021F0FB019383828304C090935C068093EB
:105140005B06FE01329644C0FE01E20FF31F81931D
:10515000919322503109398328833AC0209159060E
:1051600030915A06232B41F420910B0130910C0110
:1051700030935A06209359062091090130910A0173
:105180002115310541F42DB73EB740910D015091E5
:105190000E01241B350BE0915906F0915A06E217D7
:1051A000F307A0F42E1B3F0B2817390778F0AC014A
:1051B0004E5F5F4F2417350748F04E0F5F1F509327
:1051C0005A06409359068193919302C0E0E0F0E0C3
:1051D000CF01DF91CF911F910F910895CF93DF936E
:1051E000009709F481C0FC01329713821282A091CA
:1051F0005B06B0915C06109781F420813181820FAB
:10520000931F2091590630915A062817390751F5F6
:10521000F0935A06E093590667C0ED0120E030E0B4
:10522000CE17DF0740F44A815B819E01411551058D
:10523000F1F0EA01F5CFD383C28340815181840F1D
:10524000951FC817D90759F488819981840F951F34
:105250000296918380838A819B8193838283211527
:10526000310529F4F0935C06E0935B063DC0E9014B
:10527000FB83EA8349915991C40FD51FEC17FD07B1
:1052800061F480819181840F951F0296E9019983D1
:105290008883828193819B838A83E0E0F0E0129689
:1052A0008D919C911397009719F0FD01DC01F7CFC8
:1052B0008D919C9111979D012E5F3F4F820F931FFF
:1052C0002091590630915A062817390769F430970A
:1052D00029F410925C0610925B0602C013821282BF
:1052E000B0935A06A0935906DF91CF91089581E0BB
:1052F00090E0F8940C947C2910E0C0E8D0E004C061
:10530000FE010E9450282196C138D107C9F7F894B0
:02531000FFCFCD
:10531200AB00AB00010100060000005D0680004604
:10532200063C0632060000803F000000000000003C
:10533200000000803F0000000000000000000000AC
:10534200000000000000000000000000000000005B
:10535200000101010101010101010101010102023A
:10536200020202020202030303030303030404040E
:1053720004040505050506060606070707070808CB
:10538200080909090A0A0A0B0B0B0C0C0D0D0D0E6C
:105392000E0F0F10101111121213131414151516EB
:1053A2001617181819191A1B1B1C1D1D1E1F202049
:1053B20021222323242526272728292A2B2C2D2E78
:1053C2002F303132323334363738393A3B3C3D3E76
:1053D2003F40424344454648494A4B4D4E4F515245
:1053E20053555657595A5C5D5F60626365666869DA
:1053F2006B6D6E7072737577787A7C7E7F81838530
:1054020087898A8C8E90929496989A9C9EA0A2A448
:10541200A7A9ABADAFB1B4B6B8BABDBFC1C4C6C817
:10542200CBCDD0D2D5D7DADCDFE1E4E7E9ECEFF19E
:10543200F4F7F9FCFF000000003F01AC00D6008C3D
:10544200010701E500F9000000000045021802759D
:1054520002EC011002FC01ED017368323030715F21
:10546200696E697428293A20493243206661696C61
:1054720065642E000D0A006E616E00696E66006F33
:04548200766600004A
:00000001FF
