:100000000C9458000C9480000C9480000C94800098
:100010000C9480000C9480000C9480000C94800060
:100020000C9480000C9480000C9480000C94800050
:100030000C9480000C9480000C9480000C94800040
:100040000C940B050C9480000C947B050C945505C6
:100050000C9480000C9480000C9480000C94800020
:100060000C94AD050C9480000000000025002800D1
:100070002B00040404040404040402020202020229
:10008000030303030303010204081020408001025C
:1000900004081020010204081020000000080002DB
:1000A0000100000304070000000000000000DB0660
:1000B00011241FBECFEFD8E0DEBFCDBF11E0A0E01E
:1000C000B1E0E8EFF2E102C005900D92A434B1076F
:1000D000D9F722E0A4E4B1E001C01D92A23CB2072E
:1000E000E1F710E0C8E5D0E004C02197FE010E94CE
:1000F0006F09C735D107C9F70E9414070C947A0914
:100100000C940000282F30911802313208F04AC0B8
:100110008091F4018111FCCF9091170242E040934D
:10012000F4012093F3012FEF2093F2011092F101DB
:100130003093F001E7EFF1E0A0EDB1E020E03217FD
:1001400021F041914D932F5FFACF1092CF01209172
:10015000CF01990F922B9093CF019091CE019130C6
:1001600061F41092CE019091CF019093BB009091D9
:10017000BC0093FDF8CF95EC01C095EE9093BC00C8
:100180009091F4019230E1F39091F2019F3F79F068
:100190008091F201803241F08091F201803331F0A0
:1001A00084E005C081E003C082E001C083E01092DA
:1001B000F601109218021092F50108958091A8019D
:1001C00090E02091A901821B9109089590E0FC0123
:1001D000E656FF4F2491FC01EA57FF4F3491FC0192
:1001E000EE58FF4FE491EE23B1F1222339F1233091
:1001F00091F038F42130A9F0223001F584B58F7DDB
:1002000012C0273091F02830A1F02430B9F4809149
:1002100080008F7D03C0809180008F778093800065
:100220000DC084B58F7784BD09C08091B0008F77F1
:1002300003C08091B0008F7D8093B000F0E0EE0F9E
:10024000FF1FE859FF4FA591B4918FB7F894EC9137
:10025000E32BEC938FBF08953FB7F8948091A401EE
:100260009091A501A091A601B091A70126B5A89BE8
:1002700005C02F3F19F00196A11DB11D3FBFBA2F38
:10028000A92F982F8827820F911DA11DB11DBC0198
:10029000CD0142E0660F771F881F991F4A95D1F75D
:1002A00008958F929F92AF92BF92CF92DF92EF927A
:1002B000FF926B017C010E942C014B015C01C11477
:1002C000D104E104F104F1F00E942C01DC01CB0126
:1002D00088199909AA09BB09883E9340A105B1056F
:1002E00070F321E0C21AD108E108F10888EE880E07
:1002F00083E0981EA11CB11CC114D104E104F104D7
:1003000019F7DDCFFF90EF90DF90CF90BF90AF90C7
:100310009F908F90089508950895CF92DF92EF9265
:10032000FF920F931F93CF93DF936C017A018B01A0
:10033000C0E0D0E0CE15DF0581F0D8016D918D01D0
:10034000D601ED91FC910190F081E02DC601099557
:10035000892B11F02196EECF7E01C701DF91CF915D
:100360001F910F91FF90EF90DF90CF900895FC01C7
:10037000538D448D252F30E0842F90E0821B930B0A
:10038000541710F0CF96089501970895FC01918DB0
:10039000828D981761F0828DDF01A80FB11D5D96E7
:1003A0008C91928D9F5F9F73928F90E008958FEF55
:1003B0009FEF0895FC01918D828D981731F0828D09
:1003C000E80FF11D858D90E008958FEF9FEF089560
:1003D000FC01918D228D892F90E0805C9F4F821BC4
:1003E00091098F739927089589E192E00E94E801AD
:1003F00021E0892B09F420E0822F0895FC01848DEF
:10040000DF01A80FB11DA35ABF4F2C91848D90E03E
:1004100001968F739927848FA689B7892C93A08919
:10042000B1898C91837080648C93938D848D9813A3
:1004300006C00288F389E02D80818F7D8083089536
:10044000EF92FF920F931F93CF93DF93EC0181E024
:10045000888F9B8D8C8D981305C0E889F9898081E0
:1004600085FD26C0F62E0B8D10E00F5F1F4F0F731A
:100470001127E02E8C8DE8120CC00FB607FCFACFC6
:10048000E889F989808185FFF5CFCE010E94FE01C0
:10049000F1CF8B8DFE01E80FF11DE35AFF4FF08283
:1004A0009FB7F8940B8FEA89FB89808180620AC02C
:1004B0009FB7F894EE89FF896083E889F989808184
:1004C0008370806480839FBF81E090E0DF91CF9153
:1004D0001F910F91FF90EF900895CF93DF93EC0160
:1004E000888D8823C9F0EA89FB89808185FD05C054
:1004F000A889B9898C9186FD0FC00FB607FCF5CF8E
:10050000808185FFF2CFA889B9898C9185FFEDCFD5
:10051000CE010E94FE01E7CFDF91CF91089580E0E8
:1005200090E0892B29F00E94F40181110C940000C5
:10053000089585ED8093BC008091BC0084FDFCCFC4
:100540001092F401089540916401262F30E0240FA9
:10055000311D21323105DCF42091F4012430C9F43D
:10056000FC0180E090E0861758F4309164012191FD
:10057000DC01AC5BBE4FA30FB11D2C930196F3CFF2
:1005800080916401680F6093640180E0089581E0C8
:10059000089582E008950895E091A9018091A8014D
:1005A000E81730F4F0E0E655FE4F808190E00895C2
:1005B0008FEF9FEF08959091A9018091A80198175E
:1005C00050F4E92FF0E0E655FE4F208130E09F5FC8
:1005D0009093A90102C02FEF3FEFC9010895CF9278
:1005E000DF92EF92FF920F931F93CF93DF937C01E3
:1005F000CB018A012091F501222389F0EB016B01E7
:10060000C40ED51ECC15DD0569F06991D701ED91B9
:10061000FC910190F081E02DC7010995F3CF642F83
:100620000E94A302C801DF91CF911F910F91FF900B
:10063000EF90DF90CF900895CF93DF931F92CDB7C7
:10064000DEB769832091F5012223D1F020911802B1
:10065000203240F021E030E0FC013383228380E04F
:1006600090E015C08091F601E82FF0E0E950FE4FD0
:10067000998190838F5F8093F6018093180205C063
:1006800061E0CE0101960E94A30281E090E00F900C
:10069000DF91CF910895CF93DF93EB0191E0909399
:1006A000F5019CE6909317021092F6011092180241
:1006B000682F86EB92E00E941C03688186EB92E033
:1006C0000E941C0381E00E94820091E0811190E071
:1006D000892FDF91CF910895089580E090E00895EB
:1006E0002F923F924F925F926F927F928F929F9242
:1006F000AF92BF92CF92DF92EF92FF920F931F9330
:10070000CF93DF9300D000D01F92CDB7DEB78B839D
:100710006C835A0189018FB7F894C090CA01D090B8
:10072000CB01E090CC01F090CD018FBF812C1D82D8
:10073000992493942C81222E312C2801612C712C28
:100740004C81841608F086C09092F5018CE6809367
:1007500017021092F601109218026B8186EB92E05C
:100760000E941C0381E00E9482009092F501109289
:10077000F601109218028091F4018111FCCFC101A1
:10078000881991098132910514F080E290E081325C
:1007900008F080E29092F4019092F3019FEF909321
:1007A000F2011092F101980F9093F0019092CF0115
:1007B0009091CF01986D9093CF019091CE0191309F
:1007C00071F41092CE019091CF019093BB00909163
:1007D000BC0093FDF8CFE5ECE093BC0003C0F5EE60
:1007E000F093BC009091F4019130E1F39091F1010C
:1007F000981710F48091F101E0EDF1E0AAEAB1E080
:1008000090E0981721F021912D939F5FFACF1092DD
:10081000A9019093A8019091A8018091A90198172E
:1008200009F451C001151105D9F12FB7F894809141
:10083000CA019091CB01A091CC01B091CD012FBF05
:100840008C199D09AE09BF0984159505A605B70544
:1008500038F139C001151105E1F12FB7F8948091F5
:10086000CA019091CB01A091CC01B091CD012FBFD5
:100870008C199D09AE09BF0920E030E0801791076F
:10088000A207B30730F14C81242F30E0ED818E2F89
:10089000EE0F990B82179307E4F4FFEFFD8319C065
:1008A000C501ED818E0F911DE7FD9A959A8389838D
:1008B00086EB92E00E94DB02E981FA818083FD8170
:1008C000FF5FFD83A8CF8C81813208F080E2880E23
:1008D00037CF8D810F900F900F900F900F90DF9179
:1008E000CF911F910F91FF90EF90DF90CF90BF902D
:1008F000AF909F908F907F906F905F904F903F90C0
:100900002F900895009769F0FC0101900020E9F70D
:100910003197AF01481B590BBC0189E192E00C945F
:100920008D0180E090E008958F929F92AF92BF92E8
:10093000CF92DF92EF92FF920F931F93CF93DF93AB
:10094000CDB7DEB7A1970FB6F894DEBF0FBECDBF0F
:100950006C01990FEE08FF08F7FE2BC06DE289E1EC
:1009600092E00E9420028C0122273327A9012C1932
:100970003D094E095F0919A2CE0181967C019AE0DA
:10098000892E912CA12CB12CCA01B901A501940189
:100990000E944D09605DF70162937F0121153105C9
:1009A0004105510589F7CF010E948204800F911FF4
:1009B0001DC0A701960119A28E010F5D1F4F8AE08D
:1009C000C82ED12CE12CF12CCA01B901A701960146
:1009D0000E944D09605DF80162938F012115310578
:1009E0004105510589F7CF010E948204A1960FB6F7
:1009F000F894DEBF0FBECDBFDF91CF911F910F9155
:100A0000FF90EF90DF90CF90BF90AF909F908F902E
:100A100008950E9475091F920F920FB60F9211242C
:100A20002F933F938F939F93AF93BF938091CA016E
:100A30009091CB01A091CC01B091CD013091A30157
:100A400023E0230F2D3720F40196A11DB11D05C011
:100A500026E8230F0296A11DB11D2093A3018093C8
:100A6000CA019093CB01A093CC01B093CD018091AA
:100A7000A4019091A501A091A601B091A7010196B2
:100A8000A11DB11D8093A4019093A501A093A6017F
:100A9000B093A701BF91AF919F918F913F912F91FB
:100AA0000F900FBE0F901F9018951F920F920FB6C8
:100AB0000F9211242F933F934F935F936F937F93E4
:100AC0008F939F93AF93BF93EF93FF9389E192E04E
:100AD0000E94FE01FF91EF91BF91AF919F918F9185
:100AE0007F916F915F914F913F912F910F900FBE2A
:100AF0000F901F9018951F920F920FB60F9211240E
:100B00002F938F939F93EF93FF93E0912902F0919E
:100B10002A028081E0912F02F091300282FD12C002
:100B20009081809132028F5F8F7320913302821700
:100B300051F0E0913202F0E0E75EFD4F958F809337
:100B4000320201C08081FF91EF919F918F912F918F
:100B50000F900FBE0F901F9018951F920F920FB617
:100B60000F9211242F933F934F935F936F937F9333
:100B70008F939F93AF93BF93EF93FF938091B900AF
:100B8000887F803609F49CC068F5883209F45BC020
:100B900090F4803109F454C038F4882309F4F6C085
:100BA000883009F44DC0F6C0883109F44CC0803259
:100BB00009F45DC0EFC0803409F468C048F48033A4
:100BC00009F455C0883309F0E5C08093F201D8C01C
:100BD000803509F44FC0883509F45DC0883409F0C8
:100BE000D9C0D6C0883909F4C7C0A8F4883709F439
:100BF00067C038F4883609F463C0803709F460C0F0
:100C0000C9C0883809F4B8C0803909F45FC0803899
:100C100009F0C0C05BC0803B09F486C038F4803A5C
:100C200009F466C0883A09F47FC0B4C0803C09F476
:100C3000A7C0883C09F4A4C0883B09F48AC0AAC0B4
:100C40008091CF0110C09091F1018091F00198172F
:100C500070F5E091F10181E08E0F8093F101F0E0F9
:100C6000E053FE4F80818093BB0085EC86C080936B
:100C7000F2018EC0E091F10181E08E0F8093F101CD
:100C80008091BB00F0E0E053FE4F80839091F10132
:100C90008091F0016EC0E091F10181E08E0F8093B0
:100CA000F1018091BB00F0E0E053FE4F8083809122
:100CB000F30181116DC081E08093CE0184EA61C0AF
:100CC00083E08093F40110928601CFCF809186015A
:100CD000803208F051C0E091860181E08E0F809350
:100CE00086018091BB00F0E0EA59FE4F8083BDCFC2
:100CF00085EC8093BC001092F401809186018032D3
:100D000030F4E0918601F0E0EA59FE4F10826091E4
:100D1000860170E0E0918701F091880186E691E01C
:100D200009951092860136C084E08093F4011092F8
:100D3000650110926401E0918901F0918A010995A1
:100D400080916401811105C081E08093640110925B
:100D50004401E091650181E08E0F80936501F0E030
:100D6000EC5BFE4F80818093BB0090916501809188
:100D70006401981708F479CF85E88093BC000AC015
:100D800085EC8093BC001092F40104C01092F20133
:100D90000E949902FF91EF91BF91AF919F918F9126
:100DA0007F916F915F914F913F912F910F900FBE67
:100DB0000F901F901895E9E1F2E01382128288EEFD
:100DC00093E0A0E0B0E084839583A683B78324E01A
:100DD00031E03183208325EC30E03587248724EC13
:100DE00030E03787268720EC30E0318B208B21ECF8
:100DF00030E0338B228B22EC30E0358B248B26ECD9
:100E000030E0378B268B118E128E138E148EE6EB0C
:100E1000F2E01382128284839583A683B78386E1EE
:100E200091E0918380830895CF93DF9300D01F9248
:100E3000CDB7DEB7789484B5826084BD84B5816017
:100E400084BD85B5826085BD85B5816085BD809195
:100E50006E00816080936E0010928100809181000D
:100E60008260809381008091810081608093810005
:100E7000809180008160809380008091B1008460C7
:100E80008093B1008091B00081608093B000809128
:100E90007A00846080937A0080917A0082608093E7
:100EA0007A0080917A00816080937A0080917A0044
:100EB000806880937A001092C100E0912902F0913D
:100EC0002A0282E08083E0912502F09126021082BE
:100ED000E0912702F091280280E180831092310294
:100EE000E0912D02F0912E0286E08083E0912B02AA
:100EF000F0912C02808180618083E0912B02F0913F
:100F00002C02808188608083E0912B02F0912C027A
:100F1000808180688083E0912B02F0912C02808197
:100F20008F7D80831092A9011092A8011092F60182
:100F3000109218021092F40111E01093F301109234
:100F4000CE0182E10E94E60083E10E94E6008091EA
:100F5000B9008E7F8093B9008091B9008D7F809316
:100F6000B90088E48093B80085E48093BC008BE8E6
:100F700091E090938A01809389018CE891E09093AD
:100F80008801809387011093F5018CE68093170206
:100F90001092F6011092180281E00E9482008823CC
:100FA00041F084E291E00E9482048FE391E00E948C
:100FB00082048B81883151F028EE33E0AE014D5F21
:100FC0005F4F61E080E30E947003F3CF61E070E067
:100FD00080E090E00E94510128EE33E0AE014E5FC8
:100FE0005F4F61E082EC0E94700361E070E080E09E
:100FF00090E00E94510128EE33E0AE014F5F5F4F59
:1010000061E088ED0E94700361E070E080E090E0B4
:101010000E9451018A8184608A83BE016E5F7F4F86
:1010200082EC0E944B0361E070E080E090E00E945F
:101030005101898180688983BE016F5F7F4F88ED90
:101040000E944B0361E070E080E090E00E9451015B
:1010500081E68B83BE016D5F7F4F88E70E944B0363
:1010600061E070E080E090E00E9451018A818B7F16
:101070008A83BE016E5F7F4F82EC0E944B0361E06A
:1010800070E080E090E00E94510189818F77898330
:10109000BE016F5F7F4F88ED0E944B0361E070E0FF
:1010A00080E090E00E9451011B82BE016D5F7F4F86
:1010B00088E70E944B0361E070E080E090E00E94CE
:1010C000510181E98B83BE016D5F7F4F8EE00E94ED
:1010D0004B0383E18B83BE016D5F7F4F8FE00E94E6
:1010E0004B0383E08B83BE016D5F7F4F81E10E94E4
:1010F0004B031B82BE016D5F7F4F82E10E944B0359
:1011000081E08B83BE016D5F7F4F86E10E944B03C0
:101110001B82BE016D5F7F4F8BE20E944B0361E03B
:1011200070E080E090E00E94510128EE33E0AE01D3
:101130004D5F5F4F61E08AEC0E94700361E070E0F8
:1011400080E090E00E9451018B8180618B83BE0121
:101150006D5F7F4F8AEC0E944B0361E070E080E09E
:1011600090E00E9451018B818F7E8B83BE016D5F69
:101170007F4F8AEC0E944B0361E070E080E090E0DA
:101180000E94510180EC8B83BE016D5F7F4F8AEB23
:101190000E944B036AE070E080E090E00E94510101
:1011A00028EE33E047E951E06CE080E00E947003F4
:1011B00080919D0190919E01909392018093910165
:1011C00020919F013091A0013093940120939301CD
:1011D0002091A1013091A2013093960120939501B5
:1011E000209197013091980130938C0120938B01CD
:1011F0002091990130919A0130938E0120938D01B5
:1012000020919B0130919C013093900120938F019C
:101210000E94940482E491E00E94820480919301F0
:10122000909194010E94940482E491E00E948204CF
:1012300080919501909196010E94940482E491E03E
:101240000E94820480918B0190918C010E949404F1
:1012500082E491E00E94820480918D0190918E0140
:101260000E94940482E491E00E94820480918F01A4
:10127000909190010E94940482E491E00E94820483
:101280008FE391E00E94820464E670E080E090E0E9
:101290000E9451010E948F0283CFA1E21A2EAA1B45
:1012A000BB1BFD010DC0AA1FBB1FEE1FFF1FA21716
:1012B000B307E407F50720F0A21BB30BE40BF50B13
:1012C000661F771F881F991F1A9469F7609570959C
:1012D000809590959B01AC01BD01CF010895EE0F63
:1012E000FF1F0590F491E02D099481E090E0F894BF
:0812F0000C947A09F894FFCF79
:1012F8000000000020028D01B7016D02E801C6015F
:10130800DA01000000001C03EF026D03CB02DE00CF
:10131800DB02CC027368323030715F696E69742801
:10132800293A20493243206661696C65642E000DB4
:041338000A0009009E
:107E0000112484B714BE81FFF0D085E080938100F7
:107E100082E08093C00088E18093C10086E0809377
:107E2000C20080E18093C4008EE0C9D0259A86E02C
:107E300020E33CEF91E0309385002093840096BBD3
:107E4000B09BFECF1D9AA8958150A9F7CC24DD24C4
:107E500088248394B5E0AB2EA1E19A2EF3E0BF2EE7
:107E6000A2D0813461F49FD0082FAFD0023811F036
:107E7000013811F484E001C083E08DD089C08234E0
:107E800011F484E103C0853419F485E0A6D080C0E4
:107E9000853579F488D0E82EFF2485D0082F10E0AE
:107EA000102F00270E291F29000F111F8ED06801E7
:107EB0006FC0863521F484E090D080E0DECF843638
:107EC00009F040C070D06FD0082F6DD080E0C81688
:107ED00080E7D80618F4F601B7BEE895C0E0D1E017
:107EE00062D089930C17E1F7F0E0CF16F0E7DF06D8
:107EF00018F0F601B7BEE89568D007B600FCFDCFD4
:107F0000A601A0E0B1E02C9130E011968C91119780
:107F100090E0982F8827822B932B1296FA010C0160
:107F200087BEE89511244E5F5F4FF1E0A038BF0790
:107F300051F7F601A7BEE89507B600FCFDCF97BE46
:107F4000E89526C08437B1F42ED02DD0F82E2BD052
:107F50003CD0F601EF2C8F010F5F1F4F84911BD097
:107F6000EA94F801C1F70894C11CD11CFA94CF0C13
:107F7000D11C0EC0853739F428D08EE10CD085E9AC
:107F80000AD08FE07ACF813511F488E018D01DD067
:107F900080E101D065CF982F8091C00085FFFCCF94
:107FA0009093C60008958091C00087FFFCCF809118
:107FB000C00084FD01C0A8958091C6000895E0E648
:107FC000F0E098E1908380830895EDDF803219F02E
:107FD00088E0F5DFFFCF84E1DECF1F93182FE3DFCA
:107FE0001150E9F7F2DF1F91089580E0E8DFEE27F6
:047FF000FF270994CA
:027FFE00040479
:0400000300007E007B
:00000001FF
